:100000000C942A000C94AF0C0C94E20C0C94150D7B
:100010000C9447000C9447000C9447000C94470044
:100020000C9447000C9447000C947A0E0C94470EE5
:100030000C9447000C9447000C9447000C94470024
:100040000C9447000C9447000C9447000C94470014
:100050000C94470011241FBECFE5D8E0DEBFCDBF12
:1000600010E0A8E6B0E001C01D92A737B107E1F7A4
:1000700010E0A0E6B0E0ECE4FFE102C005900D92D4
:10008000A836B107D9F70E94AD0E0C94A40F0C94BA
:100090000000EF92FF920F931F937B018C0120E0F1
:1000A00030E040E05FE40E94490388238CF0C801FF
:1000B000B70120E030E040E05FE40E94C1010E940F
:1000C000A9039B01AC01205030404040504806C07D
:1000D000C801B7010E94A9039B01AC01B901CA0183
:1000E0001F910F91FF90EF900895A0E0B0E0EBE733
:1000F000F0E00C946D0FDC012B01FA019C91923021
:1001000008F439C1EB018881823008F433C194309E
:1001100069F4843009F02FC111969C91119789815F
:10012000981709F428C1A0E6B0E025C1843009F48D
:1001300021C18230A9F4923009F01DC19A01AD01AC
:1001400088E0EA010990AE01E90109929E0181501F
:10015000C1F7E201898111969C918923818308C1AD
:10016000923009F407C112962D903C901397EB0141
:100170008A819B811496AD90BD90CD90DC901797AD
:10018000EC80FD800E811F819101281B390BB90184
:1001900037FF04C066277727621B730B6032710537
:1001A0000CF061C0121613066CF537014801062EDB
:1001B00004C096948794779467940A94D2F721E0C8
:1001C00030E040E050E004C0220F331F441F551FB1
:1001D0006A95D2F721503040404050402E213F21B7
:1001E00040235123211531054105510521F021E01E
:1001F00030E040E050E079018A01E628F72808293C
:1002000019293CC0232BD1F1260E371E350146019A
:10021000062E04C096948794779467940A94D2F734
:1002200021E030E040E050E004C0220F331F441FC3
:10023000551F6A95D2F721503040404050402A2146
:100240003B214C215D21211531054105510521F04E
:1002500021E030E040E050E059016A01A628B728CB
:10026000C828D9280BC0821593052CF01C01AA249C
:10027000BB24650103C0EE24FF24870111969C91E5
:10028000D20111968C91981709F445C0992339F041
:10029000A80197012A193B094C095D0906C0A6016E
:1002A00095012E193F09400B510B57FD08C01182D3
:1002B0003382228224833583468357831DC081E0A5
:1002C00081833382228288279927DC01821B930B4A
:1002D000A40BB50B84839583A683B7830DC0220F2F
:1002E000331F441F551F24833583468357838281E0
:1002F000938101979383828324813581468157813D
:10030000DA01C9010197A109B1098F5F9F4FAF4F72
:10031000BF4328F30BC0918333822282EA0CFB1C7B
:100320000C1D1D1DE482F5820683178383E0808304
:10033000248135814681578157FF1AC0C901AA27F8
:1003400097FDA095BA2F81709070A070B0705695EF
:10035000479537952795822B932BA42BB52B848318
:100360009583A683B7838281938101969383828349
:10037000DF0101C0D201CD01CDB7DEB7E2E10C94BF
:10038000890FA0E2B0E0E7ECF1E00C94790F69830B
:100390007A838B839C832D833E834F835887E9E048
:1003A000EE2EF12CEC0EFD1ECE010196B7010E943F
:1003B000D2048E010F5E1F4FCE010596B8010E9438
:1003C000D2048A8991E089278A8BC701B801AE01DE
:1003D000475E5F4F0E9475000E94FD03A096E6E015
:1003E0000C94950FA0E2B0E0E8EFF1E00C94790FE7
:1003F00069837A838B839C832D833E834F835887C5
:10040000F9E0EF2EF12CEC0EFD1ECE010196B701A6
:100410000E94D2048E010F5E1F4FCE010596B801D7
:100420000E94D204C701B801AE01475E5F4F0E942F
:1004300075000E94FD03A096E6E00C94950FA0E2E3
:10044000B0E0E5E2F2E00C946D0F69837A838B8370
:100450009C832D833E834F835887CE010196BE0136
:10046000675F7F4F0E94D204CE010596BE016F5E8A
:100470007F4F0E94D2049985923088F0898982301A
:10048000C8F0943019F4823051F404C0843029F457
:10049000923081F480E690E0C6C0923049F420E0CA
:1004A0009A858A89981321E02A87CE010996BBC0D4
:1004B000823049F420E09A858A89981321E02A8BBA
:1004C000CE014196B0C02D843E844F8458886D88FB
:1004D0007E888F88988CEE24FF248701AA24BB2471
:1004E000650140E050E060E070E0E0E0F0E0C10174
:1004F00081709070892BE9F0E60CF71C081D191D1E
:100500009A01AB012A0D3B1D4C1D5D1D80E090E062
:10051000A0E0B0E0E614F7040805190520F481E036
:1005200090E0A0E0B0E0BA01A901480F591F6A1F8E
:100530007B1FAA0CBB1CCC1CDD1C97FE08C081E0F5
:1005400090E0A0E0B0E0A82AB92ACA2ADB2A3196B6
:10055000E032F10549F0660C771C881C991C569412
:10056000479437942794C3CFFA85EA892B893C892D
:100570008B859C85280F391F2E5F3F4F17C0CA01FE
:1005800081709070892B61F016950795F794E79428
:1005900080E090E0A0E0B0E8E82AF92A0A2B1B2BC3
:1005A00076956795579547952F5F3F4F77FDE7CF36
:1005B0000CC0440F551F661F771F17FD4160EE0CDE
:1005C000FF1C001F111F21503040403090E05907A0
:1005D00090E0690790E4790760F32B8F3C8FDB0193
:1005E000CA018F779070A070B07080349105A1051A
:1005F000B10561F447FD0AC0E114F10401051105DC
:1006000029F0405C5F4F6F4F7F4F40781A8EFE1786
:1006100011F081E08A8F4D8F5E8F6F8F78A383E01A
:10062000898FCE0149960E94FD03A096E2E10C94C9
:10063000890FA8E1B0E0EFE1F3E00C94790F698352
:100640007A838B839C832D833E834F83588789E0F5
:10065000E82EF12CEC0EFD1ECE010196B7010E9492
:10066000D2048E010F5E1F4FCE010596B8010E9485
:10067000D2048985823040F08989823028F0C70110
:10068000B8010E944A0501C08FEF6896E6E00C941D
:10069000950FA8E1B0E0EFE4F3E00C94790F6983E3
:1006A0007A838B839C832D833E834F83588789E095
:1006B000E82EF12CEC0EFD1ECE010196B7010E9432
:1006C000D2048E010F5E1F4FCE010596B8010E9425
:1006D000D2048985823040F08989823028F0C701B0
:1006E000B8010E944A0501C08FEF6896E6E00C94BD
:1006F000950FA8E1B0E0EFE7F3E00C94790F698380
:100700007A838B839C832D833E834F83588789E034
:10071000E82EF12CEC0EFD1ECE010196B7010E94D1
:10072000D2048E010F5E1F4FCE010596B8010E94C4
:10073000D2048985823040F08989823028F0C7014F
:10074000B8010E944A0501C081E06896E6E00C9479
:10075000950FACE0B0E0EFEAF3E00C947D0F698315
:100760007A838B839C83CE010196BE016B5F7F4FA2
:100770000E94D2048D81823061F1823050F1843048
:1007800021F48E81882351F12EC02F81388537FDC9
:1007900020C06E812F3131051CF06623F9F023C093
:1007A0008EE190E0821B930B29853A854B855C8511
:1007B00004C056954795379527958A95D2F76623B5
:1007C000B1F050954095309521953F4F4F4F5F4F79
:1007D0000EC020E030E040E050E009C02FEF3FEFD6
:1007E0004FEF5FE704C020E030E040E050E8B9019F
:1007F000CA012C96E2E00C94990FDF92EF92FF92DF
:100800000F931F93FC01E480F58006811781D1804E
:100810008081823048F480E090E0A0E1B0E0E82AF6
:10082000F92A0A2B1B2BA5C0843009F49FC0823003
:1008300021F4EE24FF24870105C0E114F104010531
:10084000110519F4E0E0F0E096C0628173819FEF3A
:10085000623879070CF05BC022E83FEF261B370BAC
:100860002A3131052CF020E030E040E050E02AC091
:10087000B801A701022E04C0769567955795479554
:100880000A94D2F781E090E0A0E0B0E004C0880FC5
:10089000991FAA1FBB1F2A95D2F70197A109B10979
:1008A0008E219F21A023B1230097A105B10521F03E
:1008B00081E090E0A0E0B0E09A01AB01282B392B59
:1008C0004A2B5B2BDA01C9018F779070A070B07052
:1008D00080349105A105B10539F427FF09C0205CDA
:1008E0003F4F4F4F5F4F04C0215C3F4F4F4F5F4F13
:1008F000E0E0F0E02030A0E03A07A0E04A07A0E402
:100900005A0710F0E1E0F0E079018A0127C0603871
:10091000710564F5FB01E158FF4FD801C7018F77DE
:100920009070A070B07080349105A105B10539F4C4
:10093000E7FE0DC080E490E0A0E0B0E004C08FE3EB
:1009400090E0A0E0B0E0E80EF91E0A1F1B1F17FFA1
:1009500005C016950795F794E794319687E01695AC
:100960000795F794E7948A95D1F705C0EE24FF2404
:100970008701EFEFF0E06E2F679566276795902F60
:100980009F77D794DD24D7948E2F8695492F462BB9
:10099000582F5D29B701CA011F910F91FF90EF9069
:1009A000DF900895FC01DB01408151812281622F9B
:1009B0006F7770E0221F2227221F9381892F880FD3
:1009C000822B282F30E0991F9927991F11969C930D
:1009D000119721153105A9F54115510561057105DD
:1009E00011F482E037C082E89FEF13969C938E93B8
:1009F00012979A01AB0167E0220F331F441F551F66
:100A00006A95D1F783E08C930DC0220F331F441FEA
:100A1000551F12968D919C911397019713969C9355
:100A20008E931297203080E0380780E0480780E4FA
:100A3000580758F314962D933D934D935C93179755
:100A400008952F3F310579F4411551056105710570
:100A500019F484E08C93089564FF03C081E08C93C3
:100A600012C01C9210C02F57304013963C932E9307
:100A7000129783E08C9387E0440F551F661F771F02
:100A80008A95D1F7706414964D935D936D937C9322
:100A9000179708951F93DC01FB019C91923008F495
:100AA00047C08081823008F443C0943051F41196DD
:100AB0001C91843099F58181682F70E0611B710968
:100AC0003FC0843021F0923031F48230B9F181811D
:100AD000882389F12DC011961C9111978230F1F075
:100AE00081811817D9F412962D913C911397828128
:100AF00093818217930794F028173907BCF0149656
:100B00008D919D910D90BC91A02D248135814681C0
:100B10005781281739074A075B0718F4112341F05A
:100B20000AC082179307A407B50740F4112319F0F0
:100B300061E070E005C06FEF7FEF02C060E070E041
:100B4000CB011F910895DF93CF9300D000D000D048
:100B5000CDB7DEB78E8384E08A8385E08B8386E021
:100B60008C8387E08D83198220C08981282F30E013
:100B7000CE010296FC01E20FF31F40818E81282FE7
:100B800030E08981882F90E0B90102C075956795A2
:100B90008A95E2F7CB01982F917080E0642F492F5E
:100BA0000E94920889818F5F898389818430E8F26D
:100BB00026960FB6F894DEBF0FBECDBFCF91DF9162
:100BC0000895DF93CF93CDB7DEB72E970FB6F89485
:100BD000DEBF0FBECDBF81E062E041E00E9492081F
:100BE00080E090E0A0E0B0E48B879C87AD87BE8773
:100BF0006B857C858D859E8520E030E04AE755E455
:100C00000E941F02DC01CB018F839887A987BA87D6
:100C10006F81788589859A8520E030E040E85FE340
:100C20000E94790388232CF481E090E09E838D83D9
:100C30003FC06F81788589859A8520E03FEF4FE737
:100C400057E40E94190318164CF56B857C858D8539
:100C50009E8520E030E040E251E40E941F02DC016A
:100C6000CB01BC01CD010E944900DC01CB019E8378
:100C70008D830FC080E991E09C838B838B819C8165
:100C80000197F1F79C838B838D819E8101979E83D1
:100C90008D838D819E81009769F714C06F8178855F
:100CA00089859A850E944900DC01CB019E838D8352
:100CB0008D819E819A83898389819A810197F1F739
:100CC0009A83898381E062E040E00E9492082E9638
:100CD0000FB6F894DEBF0FBECDBFCF91DF91089560
:100CE000DF93CF930F92CDB7DEB7898381E060E0C9
:100CF00040E00E94920881E061E040E00E9492089A
:100D0000898182958F700E94A3050E94E1058981E7
:100D10000E94A3050E94E1050F90CF91DF910895F5
:100D2000DF93CF930F92CDB7DEB7898381E060E088
:100D300041E00E94920881E061E040E00E94920858
:100D400080E069810E945E09898182958F700E948E
:100D5000A3050E94E10589810E94A3050E94E10587
:100D60000F90CF91DF910895DF93CF93CDB7DEB78A
:100D70002E970FB6F894DEBF0FBECDBF80E090E097
:100D8000A0E2B2E48B879C87AD87BE876B857C85AC
:100D90008D859E8520E030E04AE755E40E941F02E1
:100DA000DC01CB018F839887A987BA876F8178850B
:100DB00089859A8520E030E040E85FE30E9479036E
:100DC00088232CF481E090E09E838D833FC06F8167
:100DD000788589859A8520E03FEF4FE757E40E94A8
:100DE000190318164CF56B857C858D859E8520E052
:100DF00030E040E251E40E941F02DC01CB01BC0163
:100E0000CD010E944900DC01CB019E838D830FC080
:100E100080E991E09C838B838B819C810197F1F722
:100E20009C838B838D819E8101979E838D838D8191
:100E30009E81009769F714C06F81788589859A85AE
:100E40000E944900DC01CB019E838D838D819E81B0
:100E50009A83898389819A810197F1F79A8389839B
:100E600082E00E94A3050E94E10582E00E94A305A2
:100E70000E94E10588E00E94A3050E94E1058CE044
:100E80000E94700681E00E9470062E960FB6F894BC
:100E9000DEBF0FBECDBFCF91DF910895DF93CF931B
:100EA00000D000D0CDB7DEB79C838B831A82198225
:100EB0008B819C810097D9F00EC08981282F30E06A
:100EC0008B819C81FC01E20FF31F80810E949006C0
:100ED00089818F5F89838981282F30E08B819C8174
:100EE000FC01E20FF31F8081882339F702C082E002
:100EF0008A838A810F900F900F900F90CF91DF918E
:100F00000895DF93CF9300D000D000D0CDB7DEB7E7
:100F10008B836C831A828C81282F30E03E832D8353
:100F20008D819E81009731F02D813E8121303105E8
:100F300021F007C08B81898306C08B81805C898307
:100F400002C081E08A8389818068898389810E94C7
:100F500070068A8126960FB6F894DEBF0FBECDBF0D
:100F6000CF91DF910895DF93CF93CDB7DEB7279769
:100F70000FB6F894DEBF0FBECDBF9C838B836D830D
:100F80004E832F838D81882F90E0880F991F880FC3
:100F9000991F880F991F898389818064898389813A
:100FA0000E9470061A820EC08A81282F30E08B8141
:100FB0009C81FC01E20FF31F80810E9490068A81D0
:100FC0008F5F8A838A81883078F38E816F810E9457
:100FD00081078D810E94900627960FB6F894DEBF98
:100FE0000FBECDBFCF91DF910895EF92FF920F9387
:100FF0001F93DF93CF93CDB7DEB728970FB6F89442
:10100000DEBF0FBECDBF6D837E838F83988781E067
:1010100090E0A0E0B0E089839A83AB83BC838D81AC
:101020009E81AF81B8850097A105B105D1F580E318
:101030000E9490066AC089819A81AB81BC812AE0B6
:1010400030E040E050E0BC01CD010E942C0F7B015C
:101050008C018D819E81AF81B8852AE030E040E02F
:1010600050E0BC01CD010E944B0FDC01CB018E0D85
:101070009F1DA01FB11F89839A83AB83BC838D8181
:101080009E81AF81B8852AE030E040E050E0BC01AD
:10109000CD010E944B0FDA01C9018D839E83AF837E
:1010A000B8878D819E81AF81B8850097A105B10574
:1010B00011F689819A81AB81BC812AE030E040E061
:1010C00050E0BC01CD010E944B0FDC01CB01805DE3
:1010D0000E94900689819A81AB81BC812AE030E030
:1010E00040E050E0BC01CD010E944B0FDA01C90184
:1010F00089839A83AB83BC8389819A81AB81BC81CC
:1011000081309105A105B105A1F628960FB6F89496
:10111000DEBF0FBECDBFCF91DF911F910F91FF902A
:10112000EF900895DF93CF9300D000D000D0CDB7DB
:10113000DEB78A836B834C8319828B81883008F0F9
:10114000B1C08C81823008F0ADC08A81282F30E098
:101150003E832D836D817E8161307105D1F18D815A
:101160009E818230910534F42D813E812115310517
:1011700071F095C06D817E816230710509F44BC0BC
:101180008D819E818330910509F467C088C0ABE3EF
:10119000B0E0EBE3F0E08081482F8B81282F30E036
:1011A00081E090E002C0880F991F2A95E2F78095B0
:1011B00048238C81282F30E08B81882F90E0B90163
:1011C00002C0660F771F8A95E2F7CB01842B8C93C0
:1011D0006BC0A8E3B0E0E8E3F0E08081482F8B81AA
:1011E000282F30E081E090E002C0880F991F2A95F7
:1011F000E2F7809548238C81282F30E08B81882F5F
:1012000090E0B90102C0660F771F8A95E2F7CB0123
:10121000842B8C9349C0A5E3B0E0E5E3F0E0808146
:10122000482F8B81282F30E081E090E002C0880FAA
:10123000991F2A95E2F7809548238C81282F30E06A
:101240008B81882F90E0B90102C0660F771F8A95C5
:10125000E2F7CB01842B8C9327C0A2E3B0E0E2E35A
:10126000F0E08081482F8B81282F30E081E090E0F2
:1012700002C0880F991F2A95E2F7809548238C8138
:10128000282F30E08B81882F90E0B90102C0660FD3
:10129000771F8A95E2F7CB01842B8C9305C081E000
:1012A000898302C081E08983898126960FB6F894EC
:1012B000DEBF0FBECDBFCF91DF910895DF93CF93F7
:1012C00000D000D00F92CDB7DEB78A836B8319822E
:1012D0008A81282F30E03D832C838C819D81813051
:1012E0009105D1F02C813D81223031052CF48C8187
:1012F0009D81009761F01FC02C813D812230310516
:1013000081F08C819D818330910581F014C0EBE3E5
:10131000F0E08B81808311C0E8E3F0E08B81808373
:101320000CC0E5E3F0E08B81808307C0E2E3F0E0EE
:101330008B81808302C081E0898389810F900F9027
:101340000F900F900F90CF91DF910895DF93CF937F
:10135000CDB7DEB727970FB6F894DEBF0FBECDBF6F
:101360008A836B835D834C8319828C819D81009776
:1013700009F47BC08B81883008F074C08A81282FE3
:1013800030E03F832E834E815F814130510559F11A
:101390008E819F818230910534F42E813F81211509
:1013A000310569F05CC04E815F814230510579F1B1
:1013B0008E819F818330910509F43DC050C0E9E3DF
:1013C000F0E08081282F30E08B81882F90E0A90108
:1013D00002C0559547958A95E2F7CA018170EC8164
:1013E000FD81808344C0E6E3F0E08081282F30E077
:1013F0008B81882F90E0A90102C0559547958A9569
:10140000E2F7CA018170EC81FD81808330C0E3E3A3
:10141000F0E08081282F30E08B81882F90E0A901B7
:1014200002C0559547958A95E2F7CA018170EC8113
:10143000FD8180831CC0E0E3F0E08081282F30E054
:101440008B81882F90E0A90102C0559547958A9518
:10145000E2F7CA018170EC81FD81808308C081E0E0
:10146000898305C081E0898302C082E08983898104
:1014700027960FB6F894DEBF0FBECDBFCF91DF9198
:101480000895DF93CF9300D000D00F92CDB7DEB791
:101490008A836B8319828B81883008F072C08A81BD
:1014A000282F30E03D832C838C819D8181309105F4
:1014B00049F12C813D81223031052CF48C819D81B4
:1014C000009761F05BC02C813D812230310571F1C4
:1014D0008C819D8183309105E9F150C0ABE3B0E090
:1014E000EBE3F0E08081482F8B81282F30E081E012
:1014F00090E0022E02C0880F991F0A94E2F7842719
:101500008C9341C0A8E3B0E0E8E3F0E08081482F8D
:101510008B81282F30E081E090E0022E02C0880FFE
:10152000991F0A94E2F784278C932DC0A5E3B0E0BD
:10153000E5E3F0E08081482F8B81282F30E081E0C7
:1015400090E0022E02C0880F991F0A94E2F78427C8
:101550008C9319C0A2E3B0E0E2E3F0E08081482F71
:101560008B81282F30E081E090E0022E02C0880FAE
:10157000991F0A94E2F784278C9305C081E0898340
:1015800002C081E0898389810F900F900F900F90A6
:101590000F90CF91DF910895DF93CF93CDB7DEB752
:1015A000A5E5B0E0E5E5F0E0808182608C93A5E5FB
:1015B000B0E0E5E5F0E0808181608C93A5E5B0E0E6
:1015C000E5E5F0E0808188608C93A5E5B0E0E5E595
:1015D000F0E0808184608C93A4E5B0E0E4E5F0E085
:1015E000808180648C93ABE5B0E0EBE5F0E0808136
:1015F00080648C93ABE5B0E0EBE5F0E080818F7721
:101600008C93ABE5B0E0EBE5F0E080818F7D8C93CF
:10161000CF91DF910895DF93CF93CDB7DEB72997B0
:101620000FB6F894DEBF0FBECDBF8A836B831982DD
:101630008A81882309F05FC08B81282F30E03987A9
:101640002887888599858230910529F128853985F3
:101650002330310534F4888599858130910561F016
:1016600047C0288539852330310521F18885998542
:101670008430910571F13CC0A5E5B0E0E5E5F0E00E
:1016800080818D7F8C93A5E5B0E0E5E5F0E0808179
:101690008E7F8C93BBC0A5E5B0E0E5E5F0E08081EE
:1016A0008D7F8C93A5E5B0E0E5E5F0E08081816079
:1016B0008C93ACC0A5E5B0E0E5E5F0E08081826008
:1016C0008C93A5E5B0E0E5E5F0E080818E7F8C931A
:1016D0009DC0A5E5B0E0E5E5F0E0808182608C93F7
:1016E000A5E5B0E0E5E5F0E0808181608C938EC0F7
:1016F00081E089838BC08A81813009F05FC08B8152
:10170000282F30E03F832E838E819F818230910588
:1017100029F12E813F812330310534F48E819F8160
:101720008130910561F047C02E813F812330310522
:1017300021F18E819F818430910571F13CC0A5E536
:10174000B0E0E5E5F0E08081877F8C93A5E5B0E02F
:10175000E5E5F0E080818B7F8C9358C0A5E5B0E093
:10176000E5E5F0E08081877F8C93A5E5B0E0E5E5D5
:10177000F0E0808184608C9349C0A5E5B0E0E5E5A8
:10178000F0E0808188608C93A5E5B0E0E5E5F0E0CD
:1017900080818B7F8C933AC0A5E5B0E0E5E5F0E071
:1017A000808188608C93A5E5B0E0E5E5F0E080817C
:1017B00084608C932BC081E0898328C08A81823029
:1017C00019F58B81282F30E03D832C838C819D81FE
:1017D0008330910531F02C813D812430310549F071
:1017E00010C0A4E5B0E0E4E5F0E080818F7B8C934D
:1017F0000DC0A4E5B0E0E4E5F0E0808180648C9366
:1018000005C081E0898302C081E0898389812996AE
:101810000FB6F894DEBF0FBECDBFCF91DF91089514
:10182000DF93CF9300D000D0CDB7DEB78A83198283
:101830008A81282F30E03C832B838B819C818130EF
:10184000910589F02B813C8122303105A1F08B81FB
:101850009C810097C1F4ABE5B0E0EBE5F0E080815E
:1018600080648C9312C0ABE5B0E0EBE5F0E08081E2
:1018700080688C930AC0ABE5B0E0EBE5F0E08081D6
:1018800080628C9302C081E0898389810F900F90E0
:101890000F900F90CF91DF910895DF93CF9300D0F9
:1018A00000D0CDB7DEB78A8319828A81282F30E035
:1018B0003C832B838B819C818130910589F02B8126
:1018C0003C8122303105A1F08B819C810097C1F4CD
:1018D000ABE5B0E0EBE5F0E080818F7B8C9312C04C
:1018E000ABE5B0E0EBE5F0E080818F778C930AC048
:1018F000ABE5B0E0EBE5F0E080818F7D8C9302C03A
:1019000081E0898389810F900F900F900F90CF9184
:10191000DF910895DF93CF9300D000D0CDB7DEB72D
:101920008A837C836B8319828B819C81009769F009
:101930008A81882F90E0880F991FFC01E859FF4F9A
:101940008B819C819183808302C082E0898389811D
:101950000F900F900F900F90CF91DF9108951F92ED
:101960000F920FB60F9211242F933F934F935F93D3
:101970006F937F938F939F93AF93BF93EF93FF9357
:10198000DF93CF93CDB7DEB7809168009091690067
:10199000009729F0E0916800F09169000995CF91D6
:1019A000DF91FF91EF91BF91AF919F918F917F91C7
:1019B0006F915F914F913F912F910F900FBE0F90BC
:1019C0001F9018951F920F920FB60F9211242F930C
:1019D0003F934F935F936F937F938F939F93AF93B7
:1019E000BF93EF93FF93DF93CF93CDB7DEB7809193
:1019F0006A0090916B00009729F0E0916A00F091E5
:101A00006B000995CF91DF91FF91EF91BF91AF915D
:101A10009F918F917F916F915F914F913F912F9106
:101A20000F900FBE0F901F9018951F920F920FB638
:101A30000F9211242F933F934F935F936F937F9354
:101A40008F939F93AF93BF93EF93FF93DF93CF93C6
:101A5000CDB7DEB780916C0090916D00009729F0B2
:101A6000E0916C00F0916D000995CF91DF91FF91AD
:101A7000EF91BF91AF919F918F917F916F915F9106
:101A80004F913F912F910F900FBE0F901F9018957F
:101A9000DF93CF93CDB7DEB77894CF91DF910895E0
:101AA000DF93CF93CDB7DEB7F894CF91DF91089550
:101AB000DF93CF93CDB7DEB7EAE3F0E080EF80832A
:101AC000E7E3F0E08FE08083E4E3F0E01082E1E31D
:101AD000F0E01082EBE3F0E01082E8E3F0E0108247
:101AE000E5E3F0E01082E2E3F0E01082CF91DF91D5
:101AF0000895DF93CF93CDB7DEB7A3E5B0E0E3E57C
:101B0000F0E0808180648C93A3E5B0E0E3E5F0E051
:101B1000808188608C93A3E5B0E0E3E5F0E080810C
:101B200080628C93A3E5B0E0E3E5F0E080818F7EF6
:101B30008C93A3E5B0E0E3E5F0E0808181608C93D5
:101B4000A3E5B0E0E3E5F0E0808182608C93A3E55B
:101B5000B0E0E3E5F0E080818B7F8C93ECE5F0E092
:101B600080E48083CF91DF910895DF93CF930F922C
:101B7000CDB7DEB78983E2E5F0E0898180830F90FD
:101B8000CF91DF910895DF93CF9300D000D0CDB7F0
:101B9000DEB78A837C836B8319828B819C8100975B
:101BA000B9F08A81882339F48B819C8190936F00EE
:101BB00080936E000FC08A81813039F48B819C81C3
:101BC000909371008093700005C081E0898302C00A
:101BD00082E0898389810F900F900F900F90CF91B1
:101BE000DF910895DF93CF93CDB7DEB7AFE4B0E0D8
:101BF000EFE4F0E080818E7F8C93AFE4B0E0EFE41F
:101C0000F0E080818D7F8C93AEE4B0E0EEE4F0E014
:101C10008081877F8C93AEE4B0E0EEE4F0E08081D9
:101C20008F7E8C93AEE4B0E0EEE4F0E080818160E2
:101C30008C93AEE4B0E0EEE4F0E0808182608C93BF
:101C4000AEE4B0E0EEE4F0E080818B7F8C93CF9146
:101C5000DF910895DF93CF9300D0CDB7DEB79A839D
:101C60008983ECE4F0E089819A81918380830F90ED
:101C70000F90CF91DF910895DF93CF93CDB7DEB76B
:101C8000ECE4F0E080819181CF91DF9108951F9283
:101C90000F920FB60F9211242F933F934F935F93A0
:101CA0006F937F938F939F93AF93BF93EF93FF9324
:101CB000DF93CF93CDB7DEB780916E0090916F0028
:101CC000009729F0E0916E00F0916F000995CF9197
:101CD000DF91FF91EF91BF91AF919F918F917F9194
:101CE0006F915F914F913F912F910F900FBE0F9089
:101CF0001F9018951F920F920FB60F9211242F93D9
:101D00003F934F935F936F937F938F939F93AF9383
:101D1000BF93EF93FF93DF93CF93CDB7DEB780915F
:101D2000700090917100009729F0E0917000F0919F
:101D300071000995CF91DF91FF91EF91BF91AF9124
:101D40009F918F917F916F915F914F913F912F91D3
:101D50000F900FBE0F901F901895DF93CF93CDB7C4
:101D6000DEB70E94580D0E94B4060E94CC0A0E9461
:101D7000790D0E94F20D2EEE3EE080E0B9010E9446
:101D80008A0C0E94480D8091720090917300009718
:101D9000D1F380917400909175000097A1F380E0D9
:101DA00060E00E9481078091720090917300CC01E5
:101DB000A0E0B0E0BC01CD010E94F50780E061E049
:101DC0000E9481078091740090917500CC01A0E081
:101DD000B0E0BC01CD010E94F507D5CFDF93CF93D2
:101DE00000D0CDB7DEB7809176008F5F809376000C
:101DF00080917600813029F480E090E00E942A0EE4
:101E000026C080917600823059F40E943C0E909357
:101E100073008093720080E063E00E940B0B17C098
:101E200080917600833099F40E943C0E9A838983D6
:101E3000209172003091730089819A81821B930BEB
:101E4000909375008093740080E00E944D0C0F9079
:101E50000F90CF91DF910895629FD001739FF001A1
:101E6000829FE00DF11D649FE00DF11D929FF00D2A
:101E7000839FF00D749FF00D659FF00D9927729F61
:101E8000B00DE11DF91F639FB00DE11DF91FBD01EC
:101E9000CF0111240895A1E21A2EAA1BBB1BFD013C
:101EA0000DC0AA1FBB1FEE1FFF1FA217B307E40739
:101EB000F50720F0A21BB30BE40BF50B661F771F91
:101EC000881F991F1A9469F7609570958095909571
:101ED0009B01AC01BD01CF0108952F923F924F921B
:101EE0005F926F927F928F929F92AF92BF92CF92AA
:101EF000DF92EF92FF920F931F93CF93DF93CDB7B3
:101F0000DEB7CA1BDB0B0FB6F894DEBF0FBECDBF2A
:101F100009942A88398848885F846E847D848C84FB
:101F20009B84AA84B984C884DF80EE80FD800C8104
:101F30001B81AA81B981CE0FD11D0FB6F894DEBFE7
:0C1F40000FBECDBFED010895F894FFCF57
:081F4C0000000000000000008D
:00000001FF
