:100000000C942A000C942C0E0C94610E0C94960EF9
:100010000C9447000C9447000C946E120C94A3129D
:100020000C94B3120C94C3120C9401120C94CC11C6
:100030000C9447000C9447000C9447000C94470024
:100040000C94D3060C9447000C9447000C94470082
:100050000C94470011241FBECFE5D8E0DEBFCDBF12
:1000600010E0A0E6B0E0E0E4F9E202C005900D92F5
:10007000A039B107D9F710E0A0E9B0E001C01D92A6
:10008000A939B107E1F70E941A140C949E140C943C
:100090000000EF92FF920F931F937B018C0120E0F1
:1000A00030E040E05FE40E94490388238CF0C801FF
:1000B000B70120E030E040E05FE40E94C1010E940F
:1000C000A9039B01AC01205030404040504806C07D
:1000D000C801B7010E94A9039B01AC01B901CA0183
:1000E0001F910F91FF90EF900895A0E0B0E0EBE733
:1000F000F0E00C946714DC012B01FA019C91923022
:1001000008F439C1EB018881823008F433C194309E
:1001100069F4843009F02FC111969C91119789815F
:10012000981709F428C1A0E6B0E025C1843009F48D
:1001300021C18230A9F4923009F01DC19A01AD01AC
:1001400088E0EA010990AE01E90109929E0181501F
:10015000C1F7E201898111969C918923818308C1AD
:10016000923009F407C112962D903C901397EB0141
:100170008A819B811496AD90BD90CD90DC901797AD
:10018000EC80FD800E811F819101281B390BB90184
:1001900037FF04C066277727621B730B6032710537
:1001A0000CF061C0121613066CF537014801062EDB
:1001B00004C096948794779467940A94D2F721E0C8
:1001C00030E040E050E004C0220F331F441F551FB1
:1001D0006A95D2F721503040404050402E213F21B7
:1001E00040235123211531054105510521F021E01E
:1001F00030E040E050E079018A01E628F72808293C
:1002000019293CC0232BD1F1260E371E350146019A
:10021000062E04C096948794779467940A94D2F734
:1002200021E030E040E050E004C0220F331F441FC3
:10023000551F6A95D2F721503040404050402A2146
:100240003B214C215D21211531054105510521F04E
:1002500021E030E040E050E059016A01A628B728CB
:10026000C828D9280BC0821593052CF01C01AA249C
:10027000BB24650103C0EE24FF24870111969C91E5
:10028000D20111968C91981709F445C0992339F041
:10029000A80197012A193B094C095D0906C0A6016E
:1002A00095012E193F09400B510B57FD08C01182D3
:1002B0003382228224833583468357831DC081E0A5
:1002C00081833382228288279927DC01821B930B4A
:1002D000A40BB50B84839583A683B7830DC0220F2F
:1002E000331F441F551F24833583468357838281E0
:1002F000938101979383828324813581468157813D
:10030000DA01C9010197A109B1098F5F9F4FAF4F72
:10031000BF4328F30BC0918333822282EA0CFB1C7B
:100320000C1D1D1DE482F5820683178383E0808304
:10033000248135814681578157FF1AC0C901AA27F8
:1003400097FDA095BA2F81709070A070B0705695EF
:10035000479537952795822B932BA42BB52B848318
:100360009583A683B7838281938101969383828349
:10037000DF0101C0D201CD01CDB7DEB7E2E10C94BF
:100380008314A0E2B0E0E7ECF1E00C94731469830D
:100390007A838B839C832D833E834F835887E9E048
:1003A000EE2EF12CEC0EFD1ECE010196B7010E943F
:1003B000D2048E010F5E1F4FCE010596B8010E9438
:1003C000D2048A8991E089278A8BC701B801AE01DE
:1003D000475E5F4F0E9475000E94FD03A096E6E015
:1003E0000C948F14A0E2B0E0E8EFF1E00C947314E9
:1003F00069837A838B839C832D833E834F835887C5
:10040000F9E0EF2EF12CEC0EFD1ECE010196B701A6
:100410000E94D2048E010F5E1F4FCE010596B801D7
:100420000E94D204C701B801AE01475E5F4F0E942F
:1004300075000E94FD03A096E6E00C948F14A0E2E4
:10044000B0E0E5E2F2E00C94671469837A838B8371
:100450009C832D833E834F835887CE010196BE0136
:10046000675F7F4F0E94D204CE010596BE016F5E8A
:100470007F4F0E94D2049985923088F0898982301A
:10048000C8F0943019F4823051F404C0843029F457
:10049000923081F480E690E0C6C0923049F420E0CA
:1004A0009A858A89981321E02A87CE010996BBC0D4
:1004B000823049F420E09A858A89981321E02A8BBA
:1004C000CE014196B0C02D843E844F8458886D88FB
:1004D0007E888F88988CEE24FF248701AA24BB2471
:1004E000650140E050E060E070E0E0E0F0E0C10174
:1004F00081709070892BE9F0E60CF71C081D191D1E
:100500009A01AB012A0D3B1D4C1D5D1D80E090E062
:10051000A0E0B0E0E614F7040805190520F481E036
:1005200090E0A0E0B0E0BA01A901480F591F6A1F8E
:100530007B1FAA0CBB1CCC1CDD1C97FE08C081E0F5
:1005400090E0A0E0B0E0A82AB92ACA2ADB2A3196B6
:10055000E032F10549F0660C771C881C991C569412
:10056000479437942794C3CFFA85EA892B893C892D
:100570008B859C85280F391F2E5F3F4F17C0CA01FE
:1005800081709070892B61F016950795F794E79428
:1005900080E090E0A0E0B0E8E82AF92A0A2B1B2BC3
:1005A00076956795579547952F5F3F4F77FDE7CF36
:1005B0000CC0440F551F661F771F17FD4160EE0CDE
:1005C000FF1C001F111F21503040403090E05907A0
:1005D00090E0690790E4790760F32B8F3C8FDB0193
:1005E000CA018F779070A070B07080349105A1051A
:1005F000B10561F447FD0AC0E114F10401051105DC
:1006000029F0405C5F4F6F4F7F4F40781A8EFE1786
:1006100011F081E08A8F4D8F5E8F6F8F78A383E01A
:10062000898FCE0149960E94FD03A096E2E10C94C9
:100630008314A8E1B0E0EFE1F3E00C947314698354
:100640007A838B839C832D833E834F83588789E0F5
:10065000E82EF12CEC0EFD1ECE010196B7010E9492
:10066000D2048E010F5E1F4FCE010596B8010E9485
:10067000D2048985823040F08989823028F0C70110
:10068000B8010E944A0501C08FEF6896E6E00C941D
:100690008F14A8E1B0E0EFE4F3E00C9473146983E5
:1006A0007A838B839C832D833E834F83588789E095
:1006B000E82EF12CEC0EFD1ECE010196B7010E9432
:1006C000D2048E010F5E1F4FCE010596B8010E9425
:1006D000D2048985823040F08989823028F0C701B0
:1006E000B8010E944A0501C08FEF6896E6E00C94BD
:1006F0008F14A8E1B0E0EFE7F3E00C947314698382
:100700007A838B839C832D833E834F83588789E034
:10071000E82EF12CEC0EFD1ECE010196B7010E94D1
:10072000D2048E010F5E1F4FCE010596B8010E94C4
:10073000D2048985823040F08989823028F0C7014F
:10074000B8010E944A0501C081E06896E6E00C9479
:100750008F14ACE0B0E0EFEAF3E00C947714698317
:100760007A838B839C83CE010196BE016B5F7F4FA2
:100770000E94D2048D81823061F1823050F1843048
:1007800021F48E81882351F12EC02F81388537FDC9
:1007900020C06E812F3131051CF06623F9F023C093
:1007A0008EE190E0821B930B29853A854B855C8511
:1007B00004C056954795379527958A95D2F76623B5
:1007C000B1F050954095309521953F4F4F4F5F4F79
:1007D0000EC020E030E040E050E009C02FEF3FEFD6
:1007E0004FEF5FE704C020E030E040E050E8B9019F
:1007F000CA012C96E2E00C949314DF92EF92FF92E0
:100800000F931F93FC01E480F58006811781D1804E
:100810008081823048F480E090E0A0E1B0E0E82AF6
:10082000F92A0A2B1B2BA5C0843009F49FC0823003
:1008300021F4EE24FF24870105C0E114F104010531
:10084000110519F4E0E0F0E096C0628173819FEF3A
:10085000623879070CF05BC022E83FEF261B370BAC
:100860002A3131052CF020E030E040E050E02AC091
:10087000B801A701022E04C0769567955795479554
:100880000A94D2F781E090E0A0E0B0E004C0880FC5
:10089000991FAA1FBB1F2A95D2F70197A109B10979
:1008A0008E219F21A023B1230097A105B10521F03E
:1008B00081E090E0A0E0B0E09A01AB01282B392B59
:1008C0004A2B5B2BDA01C9018F779070A070B07052
:1008D00080349105A105B10539F427FF09C0205CDA
:1008E0003F4F4F4F5F4F04C0215C3F4F4F4F5F4F13
:1008F000E0E0F0E02030A0E03A07A0E04A07A0E402
:100900005A0710F0E1E0F0E079018A0127C0603871
:10091000710564F5FB01E158FF4FD801C7018F77DE
:100920009070A070B07080349105A105B10539F4C4
:10093000E7FE0DC080E490E0A0E0B0E004C08FE3EB
:1009400090E0A0E0B0E0E80EF91E0A1F1B1F17FFA1
:1009500005C016950795F794E794319687E01695AC
:100960000795F794E7948A95D1F705C0EE24FF2404
:100970008701EFEFF0E06E2F679566276795902F60
:100980009F77D794DD24D7948E2F8695492F462BB9
:10099000582F5D29B701CA011F910F91FF90EF9069
:1009A000DF900895FC01DB01408151812281622F9B
:1009B0006F7770E0221F2227221F9381892F880FD3
:1009C000822B282F30E0991F9927991F11969C930D
:1009D000119721153105A9F54115510561057105DD
:1009E00011F482E037C082E89FEF13969C938E93B8
:1009F00012979A01AB0167E0220F331F441F551F66
:100A00006A95D1F783E08C930DC0220F331F441FEA
:100A1000551F12968D919C911397019713969C9355
:100A20008E931297203080E0380780E0480780E4FA
:100A3000580758F314962D933D934D935C93179755
:100A400008952F3F310579F4411551056105710570
:100A500019F484E08C93089564FF03C081E08C93C3
:100A600012C01C9210C02F57304013963C932E9307
:100A7000129783E08C9387E0440F551F661F771F02
:100A80008A95D1F7706414964D935D936D937C9322
:100A9000179708951F93DC01FB019C91923008F495
:100AA00047C08081823008F443C0943051F41196DD
:100AB0001C91843099F58181682F70E0611B710968
:100AC0003FC0843021F0923031F48230B9F181811D
:100AD000882389F12DC011961C9111978230F1F075
:100AE00081811817D9F412962D913C911397828128
:100AF00093818217930794F028173907BCF0149656
:100B00008D919D910D90BC91A02D248135814681C0
:100B10005781281739074A075B0718F4112341F05A
:100B20000AC082179307A407B50740F4112319F0F0
:100B300061E070E005C06FEF7FEF02C060E070E041
:100B4000CB011F910895DF93CF93CDB7DEB7A7E216
:100B5000B0E0E7E2F0E080818F778C93A7E2B0E02D
:100B6000E7E2F0E0808180648C93A7E2B0E0E7E206
:100B7000F0E0808180628C93A6E2B0E0E6E2F0E0F3
:100B80008081887F8C93A6E2B0E0E6E2F0E080818D
:100B90008C93A6E2B0E0E6E2F0E0808180688C937E
:100BA000CF91DF910895DF93CF93CDB7DEB7A6E263
:100BB000B0E0E6E2F0E0808180688C93CF91DF9135
:100BC0000895DF93CF93CDB7DEB7A6E2B0E0E6E2BB
:100BD000F0E080818F778C93CF91DF910895DF9340
:100BE000CF93CDB7DEB728970FB6F894DEBF0FBE10
:100BF000CDBF8E8378876F831D8219821A821B82F4
:100C00001C828F8198852FEF8F3F920709F466C071
:100C100080919000882309F05EC081E0809390006D
:100C2000A7E2B0E0E7E2F0E08081807E8C93A7E26B
:100C3000B0E0E7E2F0E090818E81892B8C93A6E210
:100C4000B0E0E6E2F0E0808180648C930BC08981A3
:100C50009A81AB81BC810196A11DB11D89839A83C4
:100C6000AB83BC83E6E2F0E0808182958F70882FB1
:100C700090E081709070009761F489819A81AB81D6
:100C8000BC81843F21E0920720E0A20720E0B20768
:100C9000F1F689819A81AB81BC81843F21E0920782
:100CA00020E0A20720E0B20719F485E08D8318C088
:100CB000A6E2B0E0E6E2F0E0808180618C93E5E2BC
:100CC000F0E08081882F90E0EF81F8859183808328
:100CD0001092900005C086E08D8302C082E08D8373
:100CE0008D8128960FB6F894DEBF0FBECDBFCF9191
:100CF000DF910895DF93CF9300D000D000D0CDB71F
:100D0000DEB78A837C836B835E834D8319828B81FC
:100D10009C812FEF8F3F9207D1F18D819E812FEF24
:100D20008F3F9207A1F180919000882369F581E0BF
:100D3000809390008D819E819093690080936800DC
:100D40008B819C8190936B0080936A00A7E2B0E056
:100D5000E7E2F0E08081807E8C93A7E2B0E0E7E2FA
:100D6000F0E090818A81892B8C93A6E2B0E0E6E2E4
:100D7000F0E0808180648C93A6E2B0E0E6E2F0E0EF
:100D8000808188608C9305C086E0898302C082E000
:100D90008983898126960FB6F894DEBF0FBECDBF3A
:100DA000CF91DF9108951F920F920FB60F921124E9
:100DB0002F933F934F935F936F937F938F939F9363
:100DC000AF93BF93EF93FF93DF93CF93CDB7DEB78E
:100DD000A0916A00B0916B00E5E2F0E08081882F7D
:100DE00090E08D939C93A6E2B0E0E6E2F0E0808193
:100DF000877F8C9310929000809168009091690099
:100E00002FEF8F3F920729F0E0916800F091690081
:100E10000995CF91DF91FF91EF91BF91AF919F9194
:100E20008F917F916F915F914F913F912F910F9093
:100E30000FBE0F901F901895DF93CF930F92CDB7F1
:100E4000DEB789838981982F917080E064E0492F13
:100E50000E94050A89818695982F917080E065E04F
:100E6000492F0E94050A898186958695982F917051
:100E700080E066E0492F0E94050A89818695869563
:100E80008695982F917080E067E0492F0E94050AAF
:100E90000F90CF91DF910895DF93CF93CDB7DEB759
:100EA0002E970FB6F894DEBF0FBECDBF81E060E095
:100EB00041E00E94050A80E090E0A0E0B0E48B876A
:100EC0009C87AD87BE876B857C858D859E8520E060
:100ED00030E04AE755E40E941F02DC01CB018F831A
:100EE0009887A987BA876F81788589859A8520E058
:100EF00030E040E85FE30E94790388232CF481E02E
:100F000090E09E838D833FC06F81788589859A8527
:100F100020E03FEF4FE757E40E94190318164CF505
:100F20006B857C858D859E8520E030E040E251E434
:100F30000E941F02DC01CB01BC01CD010E944900CF
:100F4000DC01CB019E838D830FC080E991E09C83FF
:100F50008B838B819C810197F1F79C838B838D819F
:100F60009E8101979E838D838D819E81009769F775
:100F700014C06F81788589859A850E944900DC01BB
:100F8000CB019E838D838D819E819A838983898104
:100F90009A810197F1F79A83898381E060E040E0CC
:100FA0000E94050A2E960FB6F894DEBF0FBECDBF85
:100FB000CF91DF910895DF93CF930F92CDB7DEB736
:100FC000898381E061E040E00E94050A81E062E0FF
:100FD00040E00E94050A898182958F700E941C075B
:100FE0000E944C0789810E941C070E944C070F90A9
:100FF000CF91DF910895DF93CF930F92CDB7DEB7F6
:10100000898381E061E041E00E94050A81E062E0BD
:1010100040E00E94050A898182958F700E941C071A
:101020000E944C0789810E941C070E944C070F9068
:10103000CF91DF910895DF93CF93CDB7DEB72E9791
:101040000FB6F894DEBF0FBECDBF80E090E0A0E207
:10105000B2E48B879C87AD87BE876B857C858D8549
:101060009E8520E030E04AE755E40E941F02DC0143
:10107000CB018F839887A987BA876F817885898507
:101080009A8520E030E040E85FE30E9479038823FE
:101090002CF481E090E09E838D833FC06F81788542
:1010A00089859A8520E03FEF4FE757E40E941903B6
:1010B00018164CF56B857C858D859E8520E030E08B
:1010C00040E251E40E941F02DC01CB01BC01CD01D2
:1010D0000E944900DC01CB019E838D830FC080E913
:1010E00091E09C838B838B819C810197F1F79C839A
:1010F0008B838D819E8101979E838D838D819E81BF
:10110000009769F714C06F81788589859A850E9458
:101110004900DC01CB019E838D838D819E819A8362
:10112000898389819A810197F1F79A83898382E083
:101130000E941C070E944C0782E00E941C070E942C
:101140004C0788E00E941C070E944C078CE00E941C
:10115000DB0781E00E94DB072E960FB6F894DEBF16
:101160000FBECDBFCF91DF910895DF93CF9300D015
:1011700000D00F92CDB7DEB79D838C831B828C810C
:101180009D812FEF8F3F920719F482E08B831CC063
:101190001A8219820FC029813A818C819D81FC01BC
:1011A000E20FF31F80810E94FB0789819A810196DB
:1011B0009A83898329813A818C819D81FC01E20F88
:1011C000F31F8081882339F78B810F900F900F9048
:1011D0000F900F90CF91DF910895DF93CF93CDB70C
:1011E000DEB72A970FB6F894DEBF0FBECDBF6F8370
:1011F000788789879A871E828F819885A985BA8585
:101200000097A105B10521F480E30E94FB077CC093
:101210001A821B821C821D82198243C08A819B8193
:10122000AC81BD812AE030E040E050E0BC01CD015E
:101230000E942614DC01CB018A839B83AC83BD838F
:101240008F819885A985BA852AE030E040E050E09A
:10125000BC01CD010E944514DC01CB019C01AD0114
:101260008A819B81AC81BD81820F931FA41FB51F12
:101270008A839B83AC83BD838F819885A985BA853A
:101280002AE030E040E050E0BC01CD010E9445146E
:10129000DA01C9018F839887A987BA8789818F5F0F
:1012A00089838F819885A985BA850097A105B105A5
:1012B00009F0B4CF26C08A819B81AC81BD812AE030
:1012C00030E040E050E0BC01CD010E944514DC015B
:1012D000CB01805D0E94FB078A819B81AC81BD812F
:1012E0002AE030E040E050E0BC01CD010E9445140E
:1012F000DA01C9018A839B83AC83BD8389818150D4
:10130000898389818823B9F68E812A960FB6F8944D
:10131000DEBF0FBECDBFCF91DF910895DF93CF9396
:1013200000D00F92CDB7DEB78A836B838B81882381
:1013300019F48A81898306C08B81813019F48A81EE
:10134000805C898389818068898389810E94DB0729
:101350000F900F900F90CF91DF910895DF93CF936F
:10136000CDB7DEB728970FB6F894DEBF0FBECDBF5E
:101370009D838C836E834F8328871B828C819D8104
:101380002FEF8F3F920759F18E81882F90E0880FC1
:10139000991F880F991F880F991F898389818064FD
:1013A000898389810E94DB071A820EC08A81282FD7
:1013B00030E08C819D81FC01E20FF31F80810E944F
:1013C000FB078A818F5F8A838A81883078F38F81D7
:1013D00068850E948E098E810E94FB0702C082E010
:1013E0008B838B8128960FB6F894DEBF0FBECDBFDE
:1013F000CF91DF910895DF93CF93CDB7DEB781E032
:101400000E94DB07CF91DF910895DF93CF9300D047
:1014100000D000D0CDB7DEB78A836B834C831982AE
:101420008B81883008F0B1C08C81823008F0ADC06B
:101430008A81282F30E03E832D836D817E8161304B
:101440007105D1F18D819E818230910534F42D8119
:101450003E812115310571F095C06D817E8162302C
:10146000710509F44BC08D819E818330910509F48B
:1014700067C088C0ABE3B0E0EBE3F0E08081482FC9
:101480008B81282F30E081E090E002C0880F991F07
:101490002A95E2F7809548238C81282F30E08B81B4
:1014A000882F90E0B90102C0660F771F8A95E2F796
:1014B000CB01842B8C936BC0A8E3B0E0E8E3F0E0B1
:1014C0008081482F8B81282F30E081E090E002C09E
:1014D000880F991F2A95E2F7809548238C81282F41
:1014E00030E08B81882F90E0B90102C0660F771F32
:1014F0008A95E2F7CB01842B8C9349C0A5E3B0E039
:10150000E5E3F0E08081482F8B81282F30E081E0F7
:1015100090E002C0880F991F2A95E2F78095482332
:101520008C81282F30E08B81882F90E0B90102C098
:10153000660F771F8A95E2F7CB01842B8C9327C027
:10154000A2E3B0E0E2E3F0E08081482F8B81282F16
:1015500030E081E090E002C0880F991F2A95E2F701
:10156000809548238C81282F30E08B81882F90E054
:10157000B90102C0660F771F8A95E2F7CB01842B71
:101580008C9305C081E0898302C081E089838981D1
:1015900026960FB6F894DEBF0FBECDBFCF91DF9178
:1015A0000895DF93CF9300D000D00F92CDB7DEB770
:1015B0008A836B8319828A81282F30E03D832C83B4
:1015C0008C819D8181309105D1F02C813D8122302B
:1015D00031052CF48C819D81009761F01FC02C8116
:1015E0003D812230310581F08C819D8183309105D0
:1015F00081F014C0EBE3F0E08B81808311C0E8E35D
:10160000F0E08B8180830CC0E5E3F0E08B81808388
:1016100007C0E2E3F0E08B81808302C081E0898330
:1016200089810F900F900F900F900F90CF91DF91C5
:101630000895DF93CF93CDB7DEB727970FB6F89411
:10164000DEBF0FBECDBF8A836B835D834C8319825F
:101650008B81883008F07BC08C819D812FEF8F3F7C
:10166000920709F474C08A81482F50E05F834E834B
:101670008E819F818130910559F12E813F812230E9
:10168000310534F44E815F814115510569F05CC02C
:101690008E819F818230910579F12E813F812330A7
:1016A000310509F43DC050C0E9E3F0E08081282F06
:1016B00030E08B81882F90E0A90102C055954795B5
:1016C0008A95E2F7CA018170EC81FD8180834AC06E
:1016D000E6E3F0E08081282F30E08B81882F90E0D6
:1016E000A90102C0559547958A95E2F7CA01817014
:1016F000EC81FD81808336C0E3E3F0E08081282F18
:1017000030E08B81882F90E0A90102C05595479564
:101710008A95E2F7CA018170EC81FD81808322C045
:10172000E0E3F0E08081282F30E08B81882F90E08B
:10173000A90102C0559547958A95E2F7CA018170C3
:10174000EC81FD8180830EC081E089830BC08C8198
:101750009D815FEF8F3F950719F482E0898302C076
:1017600081E08983898127960FB6F894DEBF0FBE8A
:10177000CDBFCF91DF910895DF93CF9300D000D0FC
:101780000F92CDB7DEB78A836B8319828B81883045
:1017900008F072C08A81282F30E03D832C838C8131
:1017A0009D818130910549F12C813D8122303105A7
:1017B0002CF48C819D81009761F05BC02C813D8170
:1017C0002230310571F18C819D8183309105E9F1E1
:1017D00050C0ABE3B0E0EBE3F0E08081482F8B81B9
:1017E000282F30E081E090E0022E02C0880F991F80
:1017F0000A94E2F784278C9341C0A8E3B0E0E8E3C1
:10180000F0E08081482F8B81282F30E081E090E04C
:10181000022E02C0880F991F0A94E2F784278C9346
:101820002DC0A5E3B0E0E5E3F0E08081482F8B8197
:10183000282F30E081E090E0022E02C0880F991F2F
:101840000A94E2F784278C9319C0A2E3B0E0E2E3A4
:10185000F0E08081482F8B81282F30E081E090E0FC
:10186000022E02C0880F991F0A94E2F784278C93F6
:1018700005C081E0898302C081E0898389810F905E
:101880000F900F900F900F90CF91DF910895DF93FD
:10189000CF93CDB7DEB7A5E5B0E0E5E5F0E0808118
:1018A00082608C93A5E5B0E0E5E5F0E080818160A1
:1018B0008C93A5E5B0E0E5E5F0E0808188608C934D
:1018C000A5E5B0E0E5E5F0E0808184608C93A4E5D7
:1018D000B0E0E4E5F0E0808180648C93ABE5B0E0BB
:1018E000EBE5F0E0808180648C93ABE5B0E0EBE564
:1018F000F0E0808180688C93ABE5B0E0EBE5F0E050
:10190000808180628C93CF91DF910895DF93CF9394
:10191000CDB7DEB729970FB6F894DEBF0FBECDBFA7
:101920008A836B8319828A81882309F05FC08B8147
:10193000282F30E03987288788859985823091055E
:1019400029F1288539852330310534F48885998536
:101950008130910561F047C02885398523303105F4
:1019600021F1888599858430910571F13CC0A5E508
:10197000B0E0E5E5F0E080818D7F8C93A5E5B0E0F7
:10198000E5E5F0E080818E7F8C93BBC0A5E5B0E0FB
:10199000E5E5F0E080818D7F8C93A5E5B0E0E5E59D
:1019A000F0E0808181608C93ACC0A5E5B0E0E5E516
:1019B000F0E0808182608C93A5E5B0E0E5E5F0E0A1
:1019C00080818E7F8C939DC0A5E5B0E0E5E5F0E0D9
:1019D000808182608C93A5E5B0E0E5E5F0E0808150
:1019E00081608C938EC081E089838BC08A81813035
:1019F00009F05FC08B81282F30E03F832E838E81DA
:101A00009F818230910529F12E813F81233031055C
:101A100034F48E819F818130910561F047C02E8121
:101A20003F812330310521F18E819F8184309105E2
:101A300071F13CC0A5E5B0E0E5E5F0E08081877F8D
:101A40008C93A5E5B0E0E5E5F0E080818B7F8C9399
:101A500058C0A5E5B0E0E5E5F0E08081877F8C9394
:101A6000A5E5B0E0E5E5F0E0808184608C9349C0B5
:101A7000A5E5B0E0E5E5F0E0808188608C93A5E520
:101A8000B0E0E5E5F0E080818B7F8C933AC0A5E57E
:101A9000B0E0E5E5F0E0808188608C93A5E5B0E0FA
:101AA000E5E5F0E0808184608C932BC081E0898340
:101AB00028C08A81823019F58B81282F30E03D8340
:101AC0002C838C819D818330910531F02C813D8167
:101AD0002430310549F010C0A4E5B0E0E4E5F0E0C1
:101AE00080818F7B8C930DC0A4E5B0E0E4E5F0E04D
:101AF000808180648C9305C081E0898302C081E08D
:101B00008983898129960FB6F894DEBF0FBECDBFB9
:101B1000CF91DF910895DF93CF9300D000D0CDB760
:101B2000DEB78A8319828A81282F30E03C832B8399
:101B30008B819C818130910589F02B813C81223001
:101B40003105A1F08B819C810097C1F4ABE5B0E039
:101B5000EBE5F0E0808180648C9312C0ABE5B0E0EF
:101B6000EBE5F0E0808180688C930AC0ABE5B0E0E3
:101B7000EBE5F0E0808180628C9302C081E0898394
:101B800089810F900F900F900F90CF91DF91089562
:101B9000DF93CF9300D000D0CDB7DEB78A83198210
:101BA0008A81282F30E03C832B838B819C8181307C
:101BB000910589F02B813C8122303105A1F08B8188
:101BC0009C810097C1F4ABE5B0E0EBE5F0E08081EB
:101BD0008F7B8C9312C0ABE5B0E0EBE5F0E0808149
:101BE0008F778C930AC0ABE5B0E0EBE5F0E0808145
:101BF0008F7D8C9302C081E0898389810F900F9043
:101C00000F900F90CF91DF910895DF93CF9300D085
:101C100000D0CDB7DEB78A837C836B8319828B813A
:101C20009C812FEF8F3F920769F08A81882F90E087
:101C3000880F991FFC01E459FF4F8B819C81918390
:101C4000808302C082E0898389810F900F900F907A
:101C50000F90CF91DF9108951F920F920FB60F92C0
:101C600011242F933F934F935F936F937F938F93A1
:101C70009F93AF93BF93EF93FF93DF93CF93CDB732
:101C8000DEB780916C0090916D002FEF8F3F92072F
:101C900029F0E0916C00F0916D000995CF91DF91F2
:101CA000FF91EF91BF91AF919F918F917F916F9134
:101CB0005F914F913F912F910F900FBE0F901F900A
:101CC00018951F920F920FB60F9211242F933F93E6
:101CD0004F935F936F937F938F939F93AF93BF9334
:101CE000EF93FF93DF93CF93CDB7DEB780916E0074
:101CF00090916F002FEF8F3F920729F0E0916E00D7
:101D0000F0916F000995CF91DF91FF91EF91BF9115
:101D1000AF919F918F917F916F915F914F913F9183
:101D20002F910F900FBE0F901F9018951F920F923A
:101D30000FB60F9211242F933F934F935F936F939E
:101D40007F938F939F93AF93BF93EF93FF93DF9313
:101D5000CF93CDB7DEB780917000909171002FEFD7
:101D60008F3F920729F0E0917000F0917100099582
:101D7000CF91DF91FF91EF91BF91AF919F918F91A3
:101D80007F916F915F914F913F912F910F900FBE77
:101D90000F901F901895DF93CF93CDB7DEB778944F
:101DA000CF91DF910895DF93CF93CDB7DEB7F8944D
:101DB000CF91DF910895DF93CF9300D000D00F92A1
:101DC000CDB7DEB78FEF89831A825EC08A81882FF4
:101DD00090E0FC01EA58FF4F908182E0692F40E0DB
:101DE0000E94050A1B823DC08B81882F90E0FC0178
:101DF000EE58FF4F90819E012C5F3F4F81E0692F8D
:101E0000A9010E94190B8C81882341F58B81482FF1
:101E100050E08A81282F30E0CA01880F991F880F6F
:101E2000991F820F931FFC01E658FF4F8081898321
:101E30000FC08B81882F90E0FC01EE58FF4F9081FE
:101E40009E012C5F3F4F81E0692FA9010E94190B71
:101E50008C81882371F389818D831CC08B818F5F76
:101E60008B838B81843008F4BFCF8A81882F90E0E8
:101E7000FC01EA58FF4F908182E0692F41E00E9407
:101E8000050A8A818F5F8A838A81843008F49ECF15
:101E900089818D838D810F900F900F900F900F90FF
:101EA000CF91DF910895DF93CF9300D00F92CDB7FC
:101EB000DEB79B838A8319828A819B812FEF8F3FB4
:101EC000920741F1EA81FB818281823000F5EA814B
:101ED000FB818281813059F4EA81FB818081EA8132
:101EE000FB819181692F41E00E94050A15C0EA81BA
:101EF000FB818281882381F4EA81FB818081EA81F0
:101F0000FB819181692F40E00E94050A05C081E0B4
:101F1000898302C082E0898389810F900F900F909E
:101F2000CF91DF910895DF93CF9300D00F92CDB77B
:101F3000DEB79B838A8319828A819B812FEF8F3F33
:101F4000920741F1EA81FB818281823000F5EA81CA
:101F5000FB818281813059F4EA81FB818081EA81B1
:101F6000FB819181692F40E00E94050A15C0EA813A
:101F7000FB818281882381F4EA81FB818081EA816F
:101F8000FB819181692F41E00E94050A05C081E033
:101F9000898302C082E0898389810F900F900F901E
:101FA000CF91DF910895DF93CF93CDB7DEB7EAE30A
:101FB000F0E080EF8083E7E3F0E08FE08083E4E30C
:101FC000F0E080E88083E1E3F0E01082EBE3F0E012
:101FD0001082E8E3F0E01082E5E3F0E01082E2E353
:101FE000F0E01082CF91DF910895DF93CF9300D07E
:101FF0000F92CDB7DEB79B838A8319828A819B813A
:102000002FEF8F3F920701F1EA81FB8187818823BF
:1020100059F4EA81FB818581EA81FB819681692FF0
:1020200041E00E94050A12C0EA81FB81878181306C
:1020300069F4EA81FB818581EA81FB819681692FC0
:1020400040E00E94050A02C082E0898389810F90E6
:102050000F900F90CF91DF910895DF93CF9300D031
:102060000F92CDB7DEB79B838A8319828A819B81C9
:102070002FEF8F3F920701F1EA81FB81878188234F
:1020800059F4EA81FB818581EA81FB819681692F80
:1020900040E00E94050A12C0EA81FB8187818130FD
:1020A00069F4EA81FB818581EA81FB819681692F50
:1020B00041E00E94050A02C082E0898389810F9075
:1020C0000F900F90CF91DF910895DF93CF9300D0C1
:1020D00000D0CDB7DEB79B838A836C8319828A8157
:1020E0009B812FEF8F3F920709F44FC0EA81FB815C
:1020F0008781823008F046C08C818A3008F03FC06A
:10210000EA81FB812081EA81FB8131818C81982FDA
:102110009170822F632F492F0E94050AEA81FB816B
:102120003081EA81FB8122818C818695982F917084
:10213000832F622F492F0E94050AEA81FB8130819B
:10214000EA81FB8123818C8186958695982F9170F9
:10215000832F622F492F0E94050AEA81FB8130817B
:10216000EA81FB8124818C81869586958695982FBE
:102170009170832F622F492F0E94050A08C084E0C6
:10218000898305C081E0898302C082E089838981D7
:102190000F900F900F900F90CF91DF910895DF93E4
:1021A000CF9300D000D000D0CDB7DEB79C838B8317
:1021B0007E836D8319828B819C812FEF8F3F9207E5
:1021C00009F43DC08D819E812FEF8F3F9207B9F1B9
:1021D000EB81FC818281823078F5EB81FC8180810A
:1021E000EB81FC8191819E012E5F3F4F692FA901F8
:1021F0000E94190B89838981882319F5EB81FC8161
:102200008281813041F48A81813029F4ED81FE811F
:1022100081E0808316C0EB81FC818281882341F4B8
:102220008A81882329F4ED81FE8181E0808309C0C1
:10223000ED81FE81108205C081E0898302C082E0C9
:102240008983898126960FB6F894DEBF0FBECDBF75
:10225000CF91DF910895DF93CF93CDB7DEB7A3E59C
:10226000B0E0E3E5F0E0808180648C93A3E5B0E02A
:10227000E3E5F0E0808188608C93A3E5B0E0E3E5DE
:10228000F0E080818F7E8C93A3E5B0E0E3E5F0E0A1
:10229000808180628C93ECE5F0E080E48083A3E5AC
:1022A000B0E0E3E5F0E0808181608C93A3E5B0E0ED
:1022B000E3E5F0E0808182608C93A3E5B0E0E3E5A4
:1022C000F0E080818B7F8C93A9E5B0E0E9E5F0E058
:1022D000808181608C93CF91DF910895DF93CF93BC
:1022E00000D000D0CDB7DEB79B838A836C83198280
:1022F0008A819B812FEF8F3F920709F18C8181307A
:1023000039F48A819B8190938B0080938A0019C055
:102310008C81882339F48A819B8190938D008093EE
:102320008C000FC08C81823039F48A819B8190931C
:102330008F0080938E0005C081E0898302C081E018
:10234000898389810F900F900F900F90CF91DF912B
:102350000895DF93CF930F92CDB7DEB78983E2E57F
:10236000F0E0898180830F90CF91DF910895DF9312
:10237000CF930F92CDB7DEB78983A9E5B0E0E9E549
:10238000F0E0808182608C93ECE5F0E089818083CD
:102390000F90CF91DF9108951F920F920FB60F9279
:1023A00011242F933F934F935F936F937F938F935A
:1023B0009F93AF93BF93EF93FF93DF93CF93CDB7EB
:1023C000DEB780918A0090918B002FEF8F3F9207AC
:1023D00029F0E0918A00F0918B000995CF91DF916F
:1023E000FF91EF91BF91AF919F918F917F916F91ED
:1023F0005F914F913F912F910F900FBE0F901F90C3
:1024000018951F920F920FB60F9211242F933F939E
:102410004F935F936F937F938F939F93AF93BF93EC
:10242000EF93FF93DF93CF93CDB7DEB780918C000E
:1024300090918D002FEF8F3F920729F0E0918C0053
:10244000F0918D000995CF91DF91FF91EF91BF91B0
:10245000AF919F918F917F916F915F914F913F913C
:102460002F910F900FBE0F901F901895DF93CF9371
:10247000CDB7DEB7AFE4B0E0EFE4F0E080818E7F6F
:102480008C93AFE4B0E0EFE4F0E080818D7F8C933B
:10249000AEE4B0E0EEE4F0E08081877F8C93AEE4C0
:1024A000B0E0EEE4F0E080818F7E8C93AEE4B0E0AB
:1024B000EEE4F0E0808181608C93AEE4B0E0EEE485
:1024C000F0E0808182608C93AEE4B0E0EEE4F0E076
:1024D00080818B7F8C93CF91DF9108951F920F9213
:1024E0000FB60F9211242F933F934F935F936F93E7
:1024F0007F938F939F93AF93BF93EF93FF93DF935C
:10250000CF93CDB7DEB780918E0090918F002FEFE3
:102510008F3F920729F0E0918E00F0918F0009958E
:10252000CF91DF91FF91EF91BF91AF919F918F91EB
:102530007F916F915F914F913F912F910F900FBEBF
:102540000F901F9018951F920F920FB60F921124A3
:10255000DF93CF93CDB7DEB7CF91DF910F900FBE52
:102560000F901F9018951F920F920FB60F92112483
:10257000DF93CF93CDB7DEB7CF91DF910F900FBE32
:102580000F901F9018951F920F920FB60F92112463
:10259000DF93CF93CDB7DEB7CF91DF910F900FBE12
:1025A0000F901F901895DF93CF9300D0CDB7DEB773
:1025B0009A838983ECE4F0E089819A819183808316
:1025C0000F900F90CF91DF910895DF93CF93CDB708
:1025D000DEB7ECE4F0E080819181CF91DF91089546
:1025E000DF93CF93CDB7DEB7AEE4B0E0EEE4F0E03A
:1025F000808180648C93A9E5B0E0E9E5F0E080811A
:1026000080628C93CF91DF910895DF93CF9300D0B8
:1026100000D0CDB7DEB78A8319828A81282F30E0B7
:102620003C832B838B819C81009769F02B813C81BB
:102630002130310581F4AEE4B0E0EEE4F0E08081D9
:1026400080648C930AC0AEE4B0E0EEE4F0E08081F8
:102650008F7B8C9302C081E0898389810F900F90DA
:102660000F900F90CF91DF910895DF93CF93CDB767
:10267000DEB7E6E4F0E080819181CF91DF910895AB
:10268000DF93CF93CDB7DEB7A9E5B0E0E9E5F0E0A1
:1026900080818F7D8C93CF91DF910895DF93CF93CD
:1026A000CDB7DEB7AAE2B0E0EAE2F0E08081806177
:1026B0008C93AAE2B0E0EAE2F0E0808188608C933B
:1026C000AAE2B0E0EAE2F0E080818F778C93AAE2A0
:1026D000B0E0EAE2F0E080818F7B8C93AAE2B0E088
:1026E000EAE2F0E080818B7F8C93E0E4F0E086E822
:1026F0008083E9E2F0E087E68083CF91DF9108955F
:10270000DF93CF93CDB7DEB7EBE2F0E08081882393
:10271000DCF7ECE2F0E08081CF91DF910895DF9368
:10272000CF930F92CDB7DEB78983EBE2F0E08081E3
:10273000829586958770882F90E0817090700097C1
:10274000A1F3ECE2F0E0898180830F90CF91DF91DB
:102750000895DF93CF93CDB7DEB7A1E4B0E0E1E415
:10276000F0E0808188608C93CF91DF910895DF93B2
:10277000CF930F92CDB7DEB78983A1E4B0E0E1E457
:10278000F0E08081887F8C93898187708983A1E4C0
:10279000B0E0E1E4F0E090818981892B8C930F9087
:1027A000CF91DF910895DF93CF93CDB7DEB7E1E40A
:1027B000F0E088E18083E1E4F0E01082CF91DF91E6
:1027C0000895DF93CF93CDB7DEB78091980088232B
:1027D00061F40E9435139093920080939100809150
:1027E00098008F5F8093980022C08091980081307C
:1027F00079F40E943513909394008093930080E0C5
:102800000E940513809198008F5F809398000FC0FD
:1028100080919800823059F40E943513909396006D
:10282000809395000E94401381E080939700CF91A0
:10283000DF910895DF93CF93CDB7DEB70E94D30F1A
:102840000E944E1381E00E948F13FFCF629FD00140
:10285000739FF001829FE00DF11D649FE00DF11D5B
:10286000929FF00D839FF00D749FF00D659FF00D0A
:102870009927729FB00DE11DF91F639FB00DE11DF7
:10288000F91FBD01CF0111240895A1E21A2EAA1B40
:10289000BB1BFD010DC0AA1FBB1FEE1FFF1FA21710
:1028A000B307E407F50720F0A21BB30BE40BF50B0D
:1028B000661F771F881F991F1A9469F76095709596
:1028C000809590959B01AC01BD01CF0108952F9299
:1028D0003F924F925F926F927F928F929F92AF92B0
:1028E000BF92CF92DF92EF92FF920F931F93CF93FD
:1028F000DF93CDB7DEB7CA1BDB0B0FB6F894DEBF94
:102900000FBECDBF09942A88398848885F846E84B9
:102910007D848C849B84AA84B984C884DF80EE8003
:10292000FD800C811B81AA81B981CE0FD11D0FB60C
:10293000F894DEBF0FBECDBFED010895F894FFCF30
:102940000000000000000000FFFFFFFFFFFFFFFF8F
:10295000FFFF04050607030405063132332B343527
:10296000362D3738392A2E303D2FFFFFFFFFFFFF6E
:00000001FF
