:100000000C942A000C94B30C0C94E80C0C941D0D69
:100010000C9447000C9447000C9447000C94470044
:100020000C9447000C9447000C9447000C94470034
:100030000C9447000C9447000C9447000C94470024
:100040000C9447000C9447000C9447000C94470014
:100050000C94470011241FBECFE5D8E0DEBFCDBF12
:1000600010E0A0E6B0E0E6E5FCE202C005900D92EB
:10007000AE39B107D9F710E0AEE9B0E001C01D928A
:10008000AF39B107E1F70E940E140C9429160C94B5
:100090000000EF92FF920F931F937B018C0120E0F1
:1000A00030E040E05FE40E94490388238CF0C801FF
:1000B000B70120E030E040E05FE40E94C1010E940F
:1000C000A9039B01AC01205030404040504806C07D
:1000D000C801B7010E94A9039B01AC01B901CA0183
:1000E0001F910F91FF90EF900895A0E0B0E0EBE733
:1000F000F0E00C947615DC012B01FA019C91923012
:1001000008F439C1EB018881823008F433C194309E
:1001100069F4843009F02FC111969C91119789815F
:10012000981709F428C1A1E7B0E025C1843009F48B
:1001300021C18230A9F4923009F01DC19A01AD01AC
:1001400088E0EA010990AE01E90109929E0181501F
:10015000C1F7E201898111969C918923818308C1AD
:10016000923009F407C112962D903C901397EB0141
:100170008A819B811496AD90BD90CD90DC901797AD
:10018000EC80FD800E811F819101281B390BB90184
:1001900037FF04C066277727621B730B6032710537
:1001A0000CF061C0121613066CF537014801062EDB
:1001B00004C096948794779467940A94D2F721E0C8
:1001C00030E040E050E004C0220F331F441F551FB1
:1001D0006A95D2F721503040404050402E213F21B7
:1001E00040235123211531054105510521F021E01E
:1001F00030E040E050E079018A01E628F72808293C
:1002000019293CC0232BD1F1260E371E350146019A
:10021000062E04C096948794779467940A94D2F734
:1002200021E030E040E050E004C0220F331F441FC3
:10023000551F6A95D2F721503040404050402A2146
:100240003B214C215D21211531054105510521F04E
:1002500021E030E040E050E059016A01A628B728CB
:10026000C828D9280BC0821593052CF01C01AA249C
:10027000BB24650103C0EE24FF24870111969C91E5
:10028000D20111968C91981709F445C0992339F041
:10029000A80197012A193B094C095D0906C0A6016E
:1002A00095012E193F09400B510B57FD08C01182D3
:1002B0003382228224833583468357831DC081E0A5
:1002C00081833382228288279927DC01821B930B4A
:1002D000A40BB50B84839583A683B7830DC0220F2F
:1002E000331F441F551F24833583468357838281E0
:1002F000938101979383828324813581468157813D
:10030000DA01C9010197A109B1098F5F9F4FAF4F72
:10031000BF4328F30BC0918333822282EA0CFB1C7B
:100320000C1D1D1DE482F5820683178383E0808304
:10033000248135814681578157FF1AC0C901AA27F8
:1003400097FDA095BA2F81709070A070B0705695EF
:10035000479537952795822B932BA42BB52B848318
:100360009583A683B7838281938101969383828349
:10037000DF0101C0D201CD01CDB7DEB7E2E10C94BF
:100380009215A0E2B0E0E7ECF1E00C9482156983ED
:100390007A838B839C832D833E834F835887E9E048
:1003A000EE2EF12CEC0EFD1ECE010196B7010E943F
:1003B000D2048E010F5E1F4FCE010596B8010E9438
:1003C000D2048A8991E089278A8BC701B801AE01DE
:1003D000475E5F4F0E9475000E94FD03A096E6E015
:1003E0000C949E15A0E2B0E0E8EFF1E00C948215C9
:1003F00069837A838B839C832D833E834F835887C5
:10040000F9E0EF2EF12CEC0EFD1ECE010196B701A6
:100410000E94D2048E010F5E1F4FCE010596B801D7
:100420000E94D204C701B801AE01475E5F4F0E942F
:1004300075000E94FD03A096E6E00C949E15A0E2D4
:10044000B0E0E5E2F2E00C94761569837A838B8361
:100450009C832D833E834F835887CE010196BE0136
:10046000675F7F4F0E94D204CE010596BE016F5E8A
:100470007F4F0E94D2049985923088F0898982301A
:10048000C8F0943019F4823051F404C0843029F457
:10049000923081F481E790E0C6C0923049F420E0C8
:1004A0009A858A89981321E02A87CE010996BBC0D4
:1004B000823049F420E09A858A89981321E02A8BBA
:1004C000CE014196B0C02D843E844F8458886D88FB
:1004D0007E888F88988CEE24FF248701AA24BB2471
:1004E000650140E050E060E070E0E0E0F0E0C10174
:1004F00081709070892BE9F0E60CF71C081D191D1E
:100500009A01AB012A0D3B1D4C1D5D1D80E090E062
:10051000A0E0B0E0E614F7040805190520F481E036
:1005200090E0A0E0B0E0BA01A901480F591F6A1F8E
:100530007B1FAA0CBB1CCC1CDD1C97FE08C081E0F5
:1005400090E0A0E0B0E0A82AB92ACA2ADB2A3196B6
:10055000E032F10549F0660C771C881C991C569412
:10056000479437942794C3CFFA85EA892B893C892D
:100570008B859C85280F391F2E5F3F4F17C0CA01FE
:1005800081709070892B61F016950795F794E79428
:1005900080E090E0A0E0B0E8E82AF92A0A2B1B2BC3
:1005A00076956795579547952F5F3F4F77FDE7CF36
:1005B0000CC0440F551F661F771F17FD4160EE0CDE
:1005C000FF1C001F111F21503040403090E05907A0
:1005D00090E0690790E4790760F32B8F3C8FDB0193
:1005E000CA018F779070A070B07080349105A1051A
:1005F000B10561F447FD0AC0E114F10401051105DC
:1006000029F0405C5F4F6F4F7F4F40781A8EFE1786
:1006100011F081E08A8F4D8F5E8F6F8F78A383E01A
:10062000898FCE0149960E94FD03A096E2E10C94C9
:100630009215A8E1B0E0EFE1F3E00C948215698334
:100640007A838B839C832D833E834F83588789E0F5
:10065000E82EF12CEC0EFD1ECE010196B7010E9492
:10066000D2048E010F5E1F4FCE010596B8010E9485
:10067000D2048985823040F08989823028F0C70110
:10068000B8010E944A0501C08FEF6896E6E00C941D
:100690009E15A8E1B0E0EFE4F3E00C9482156983C5
:1006A0007A838B839C832D833E834F83588789E095
:1006B000E82EF12CEC0EFD1ECE010196B7010E9432
:1006C000D2048E010F5E1F4FCE010596B8010E9425
:1006D000D2048985823040F08989823028F0C701B0
:1006E000B8010E944A0501C08FEF6896E6E00C94BD
:1006F0009E15A8E1B0E0EFE7F3E00C948215698362
:100700007A838B839C832D833E834F83588789E034
:10071000E82EF12CEC0EFD1ECE010196B7010E94D1
:10072000D2048E010F5E1F4FCE010596B8010E94C4
:10073000D2048985823040F08989823028F0C7014F
:10074000B8010E944A0501C081E06896E6E00C9479
:100750009E15ACE0B0E0EFEAF3E00C9486156983F7
:100760007A838B839C83CE010196BE016B5F7F4FA2
:100770000E94D2048D81823061F1823050F1843048
:1007800021F48E81882351F12EC02F81388537FDC9
:1007900020C06E812F3131051CF06623F9F023C093
:1007A0008EE190E0821B930B29853A854B855C8511
:1007B00004C056954795379527958A95D2F76623B5
:1007C000B1F050954095309521953F4F4F4F5F4F79
:1007D0000EC020E030E040E050E009C02FEF3FEFD6
:1007E0004FEF5FE704C020E030E040E050E8B9019F
:1007F000CA012C96E2E00C94A215DF92EF92FF92D0
:100800000F931F93FC01E480F58006811781D1804E
:100810008081823048F480E090E0A0E1B0E0E82AF6
:10082000F92A0A2B1B2BA5C0843009F49FC0823003
:1008300021F4EE24FF24870105C0E114F104010531
:10084000110519F4E0E0F0E096C0628173819FEF3A
:10085000623879070CF05BC022E83FEF261B370BAC
:100860002A3131052CF020E030E040E050E02AC091
:10087000B801A701022E04C0769567955795479554
:100880000A94D2F781E090E0A0E0B0E004C0880FC5
:10089000991FAA1FBB1F2A95D2F70197A109B10979
:1008A0008E219F21A023B1230097A105B10521F03E
:1008B00081E090E0A0E0B0E09A01AB01282B392B59
:1008C0004A2B5B2BDA01C9018F779070A070B07052
:1008D00080349105A105B10539F427FF09C0205CDA
:1008E0003F4F4F4F5F4F04C0215C3F4F4F4F5F4F13
:1008F000E0E0F0E02030A0E03A07A0E04A07A0E402
:100900005A0710F0E1E0F0E079018A0127C0603871
:10091000710564F5FB01E158FF4FD801C7018F77DE
:100920009070A070B07080349105A105B10539F4C4
:10093000E7FE0DC080E490E0A0E0B0E004C08FE3EB
:1009400090E0A0E0B0E0E80EF91E0A1F1B1F17FFA1
:1009500005C016950795F794E794319687E01695AC
:100960000795F794E7948A95D1F705C0EE24FF2404
:100970008701EFEFF0E06E2F679566276795902F60
:100980009F77D794DD24D7948E2F8695492F462BB9
:10099000582F5D29B701CA011F910F91FF90EF9069
:1009A000DF900895FC01DB01408151812281622F9B
:1009B0006F7770E0221F2227221F9381892F880FD3
:1009C000822B282F30E0991F9927991F11969C930D
:1009D000119721153105A9F54115510561057105DD
:1009E00011F482E037C082E89FEF13969C938E93B8
:1009F00012979A01AB0167E0220F331F441F551F66
:100A00006A95D1F783E08C930DC0220F331F441FEA
:100A1000551F12968D919C911397019713969C9355
:100A20008E931297203080E0380780E0480780E4FA
:100A3000580758F314962D933D934D935C93179755
:100A400008952F3F310579F4411551056105710570
:100A500019F484E08C93089564FF03C081E08C93C3
:100A600012C01C9210C02F57304013963C932E9307
:100A7000129783E08C9387E0440F551F661F771F02
:100A80008A95D1F7706414964D935D936D937C9322
:100A9000179708951F93DC01FB019C91923008F495
:100AA00047C08081823008F443C0943051F41196DD
:100AB0001C91843099F58181682F70E0611B710968
:100AC0003FC0843021F0923031F48230B9F181811D
:100AD000882389F12DC011961C9111978230F1F075
:100AE00081811817D9F412962D913C911397828128
:100AF00093818217930794F028173907BCF0149656
:100B00008D919D910D90BC91A02D248135814681C0
:100B10005781281739074A075B0718F4112341F05A
:100B20000AC082179307A407B50740F4112319F0F0
:100B300061E070E005C06FEF7FEF02C060E070E041
:100B4000CB011F910895DF93CF930F92CDB7DEB7FE
:100B500089838981982F917080E064E0492F0E94F9
:100B60008C0889818695982F917080E065E0492FE7
:100B70000E948C08898186958695982F917080E0D7
:100B800066E0492F0E948C08898186958695869516
:100B9000982F917080E067E0492F0E948C080F9099
:100BA000CF91DF910895DF93CF93CDB7DEB72E9726
:100BB0000FB6F894DEBF0FBECDBF81E063E041E029
:100BC0000E948C0880E090E0A0E0B0E48B879C87D6
:100BD000AD87BE876B857C858D859E8520E030E066
:100BE0004AE755E40E941F02DC01CB018F839887FE
:100BF000A987BA876F81788589859A8520E030E05A
:100C000040E85FE30E94790388232CF481E090E0C0
:100C10009E838D833FC06F81788589859A8520E08A
:100C20003FEF4FE757E40E94190318164CF56B8508
:100C30007C858D859E8520E030E040E251E40E9475
:100C40001F02DC01CB01BC01CD010E944900DC0187
:100C5000CB019E838D830FC080E991E09C838B83C1
:100C60008B819C810197F1F79C838B838D819E8181
:100C700001979E838D838D819E81009769F714C0B3
:100C80006F81788589859A850E944900DC01CB01B6
:100C90009E838D838D819E819A83898389819A81A8
:100CA0000197F1F79A83898381E063E040E00E9435
:100CB0008C082E960FB6F894DEBF0FBECDBFCF9135
:100CC000DF910895DF93CF930F92CDB7DEB789837D
:100CD00081E061E040E00E948C0881E065E040E056
:100CE0000E948C08898182958F700E94A3050E94C2
:100CF000D30589810E94A3050E94D3050F90CF914F
:100D0000DF910895DF93CF930F92CDB7DEB789833C
:100D100081E061E041E00E948C0881E065E040E014
:100D20000E948C08898182958F700E94A3050E9481
:100D3000D30589810E94A3050E94D3050F90CF910E
:100D4000DF910895DF93CF93CDB7DEB72E970FB61F
:100D5000F894DEBF0FBECDBF80E090E0A0E2B2E429
:100D60008B879C87AD87BE876B857C858D859E85AF
:100D700020E030E04AE755E40E941F02DC01CB018D
:100D80008F839887A987BA876F81788589859A85A7
:100D900020E030E040E85FE30E94790388232CF4F0
:100DA00081E090E09E838D833FC06F817885898547
:100DB0009A8520E03FEF4FE757E40E941903181689
:100DC0004CF56B857C858D859E8520E030E040E28A
:100DD00051E40E941F02DC01CB01BC01CD010E9445
:100DE0004900DC01CB019E838D830FC080E991E037
:100DF0009C838B838B819C810197F1F79C838B83F0
:100E00008D819E8101979E838D838D819E81009728
:100E100069F714C06F81788589859A850E94490099
:100E2000DC01CB019E838D838D819E819A83898392
:100E300089819A810197F1F79A83898382E00E94E0
:100E4000A3050E94D30582E00E94A3050E94D3055A
:100E500088E00E94A3050E94D3058CE00E946206F0
:100E600081E00E9462062E960FB6F894DEBF0FBE98
:100E7000CDBFCF91DF910895DF93CF9300D000D005
:100E80000F92CDB7DEB79D838C831B828C819D81B1
:100E90002FEF8F3F920719F482E08B831CC01A82D8
:100EA00019820FC029813A818C819D81FC01E20F5A
:100EB000F31F80810E94820689819A8101969A831C
:100EC000898329813A818C819D81FC01E20FF31F86
:100ED0008081882339F78B810F900F900F900F90AE
:100EE0000F90CF91DF910895DF93CF93CDB7DEB709
:100EF0002A970FB6F894DEBF0FBECDBF6F837887F9
:100F000089879A871E828F819885A985BA850097DF
:100F1000A105B10521F480E30E9482067CC01A82FB
:100F20001B821C821D82198243C08A819B81AC81F5
:100F3000BD812AE030E040E050E0BC01CD010E94DC
:100F40000E15DC01CB018A839B83AC83BD838F812B
:100F50009885A985BA852AE030E040E050E0BC01E0
:100F6000CD010E944015DC01CB019C01AD018A81BD
:100F70009B81AC81BD81820F931FA41FB51F8A8303
:100F80009B83AC83BD838F819885A985BA852AE030
:100F900030E040E050E0BC01CD010E944015DA0194
:100FA000C9018F839887A987BA8789818F5F8983D1
:100FB0008F819885A985BA850097A105B10509F0AB
:100FC000B4CF26C08A819B81AC81BD812AE030E00C
:100FD00040E050E0BC01CD010E944015DC01CB0196
:100FE000805D0E9482068A819B81AC81BD812AE05E
:100FF00030E040E050E0BC01CD010E944015DA0134
:10100000C9018A839B83AC83BD8389818150898395
:1010100089818823B9F68E812A960FB6F894DEBFAF
:101020000FBECDBFCF91DF910895DF93CF9300D056
:101030000F92CDB7DEB78A836B838B81882319F437
:101040008A81898306C08B81813019F48A81805C12
:10105000898389818068898389810E9462060F90D3
:101060000F900F90CF91DF910895DF93CF93CDB77D
:10107000DEB728970FB6F894DEBF0FBECDBF9D83B5
:101080008C836E834F8328871B828C819D812FEFF9
:101090008F3F920759F18E81882F90E0880F991F1A
:1010A000880F991F880F991F89838981806489839C
:1010B00089810E9462061A820EC08A81282F30E040
:1010C0008C819D81FC01E20FF31F80810E948206CA
:1010D0008A818F5F8A838A81883078F38F816885DF
:1010E0000E9415088E810E94820602C082E08B83D6
:1010F0008B8128960FB6F894DEBF0FBECDBFCF917F
:10110000DF910895DF93CF93CDB7DEB781E00E94E2
:101110006206CF91DF910895DF93CF9300D000D086
:1011200000D0CDB7DEB78A836B834C8319828B8165
:10113000883008F0B1C08C81823008F0ADC08A815F
:10114000282F30E03E832D836D817E8161307105D3
:10115000D1F18D819E818230910534F42D813E81C3
:101160002115310571F095C06D817E816230710568
:1011700009F44BC08D819E818330910509F467C0CD
:1011800088C0ABE3B0E0EBE3F0E08081482F8B81D7
:10119000282F30E081E090E002C0880F991F2A9547
:1011A000E2F7809548238C81282F30E08B81882FAF
:1011B00090E0B90102C0660F771F8A95E2F7CB0174
:1011C000842B8C936BC0A8E3B0E0E8E3F0E080816F
:1011D000482F8B81282F30E081E090E002C0880FFB
:1011E000991F2A95E2F7809548238C81282F30E0BB
:1011F0008B81882F90E0B90102C0660F771F8A9516
:10120000E2F7CB01842B8C9349C0A5E3B0E0E5E382
:10121000F0E08081482F8B81282F30E081E090E042
:1012200002C0880F991F2A95E2F7809548238C8188
:10123000282F30E08B81882F90E0B90102C0660F23
:10124000771F8A95E2F7CB01842B8C9327C0A2E30A
:10125000B0E0E2E3F0E08081482F8B81282F30E07E
:1012600081E090E002C0880F991F2A95E2F78095EF
:1012700048238C81282F30E08B81882F90E0B901A2
:1012800002C0660F771F8A95E2F7CB01842B8C93FF
:1012900005C081E0898302C081E089838981269627
:1012A0000FB6F894DEBF0FBECDBFCF91DF9108958A
:1012B000DF93CF9300D000D00F92CDB7DEB78A83F3
:1012C0006B8319828A81282F30E03D832C838C81A7
:1012D0009D8181309105D1F02C813D8122303105F5
:1012E0002CF48C819D81009761F01FC02C813D8181
:1012F0002230310581F08C819D818330910581F010
:1013000014C0EBE3F0E08B81808311C0E8E3F0E0F0
:101310008B8180830CC0E5E3F0E08B81808307C084
:10132000E2E3F0E08B81808302C081E089838981E0
:101330000F900F900F900F900F90CF91DF91089525
:10134000DF93CF93CDB7DEB727970FB6F894DEBF04
:101350000FBECDBF8A836B835D834C8319828B81E3
:10136000883008F07BC08C819D812FEF8F3F9207E2
:1013700009F474C08A81482F50E05F834E838E81C8
:101380009F818130910559F12E813F8122303105B5
:1013900034F44E815F814115510569F05CC08E8146
:1013A0009F818230910579F12E813F812330310573
:1013B00009F43DC050C0E9E3F0E08081282F30E01F
:1013C0008B81882F90E0A90102C0559547958A9599
:1013D000E2F7CA018170EC81FD8180834AC0E6E3B7
:1013E000F0E08081282F30E08B81882F90E0A901E8
:1013F00002C0559547958A95E2F7CA018170EC8144
:10140000FD81808336C0E3E3F0E08081282F30E067
:101410008B81882F90E0A90102C0559547958A9548
:10142000E2F7CA018170EC81FD81808322C0E0E394
:10143000F0E08081282F30E08B81882F90E0A90197
:1014400002C0559547958A95E2F7CA018170EC81F3
:10145000FD8180830EC081E089830BC08C819D81DA
:101460005FEF8F3F950719F482E0898302C081E026
:101470008983898127960FB6F894DEBF0FBECDBF52
:10148000CF91DF910895DF93CF9300D000D00F92DA
:10149000CDB7DEB78A836B8319828B81883008F0E1
:1014A00072C08A81282F30E03D832C838C819D81FE
:1014B0008130910549F12C813D81223031052CF498
:1014C0008C819D81009761F05BC02C813D81223031
:1014D000310571F18C819D8183309105E9F150C016
:1014E000ABE3B0E0EBE3F0E08081482F8B81282F65
:1014F00030E081E090E0022E02C0880F991F0A942C
:10150000E2F784278C9341C0A8E3B0E0E8E3F0E081
:101510008081482F8B81282F30E081E090E0022EDF
:1015200002C0880F991F0A94E2F784278C932DC07C
:10153000A5E3B0E0E5E3F0E08081482F8B81282F20
:1015400030E081E090E0022E02C0880F991F0A94DB
:10155000E2F784278C9319C0A2E3B0E0E2E3F0E065
:101560008081482F8B81282F30E081E090E0022E8F
:1015700002C0880F991F0A94E2F784278C9305C054
:1015800081E0898302C081E0898389810F900F9077
:101590000F900F900F90CF91DF910895DF93CF932D
:1015A000CDB7DEB7A5E5B0E0E5E5F0E0808182608B
:1015B0008C93A5E5B0E0E5E5F0E0808181608C9357
:1015C000A5E5B0E0E5E5F0E0808188608C93A5E5D5
:1015D000B0E0E5E5F0E0808184608C93A4E5B0E0C4
:1015E000E4E5F0E0808180648C93ABE5B0E0EBE56E
:1015F000F0E0808180648C93ABE5B0E0EBE5F0E057
:10160000808180688C93ABE5B0E0EBE5F0E0808111
:1016100080628C93CF91DF910895DF93CF93CDB704
:10162000DEB729970FB6F894DEBF0FBECDBF8A8311
:101630006B8319828A81882309F05FC08B81282FF0
:1016400030E039872887888599858230910529F18E
:10165000288539852330310534F488859985813092
:10166000910561F047C0288539852330310521F186
:10167000888599858430910571F13CC0A5E5B0E07D
:10168000E5E5F0E080818D7F8C93A5E5B0E0E5E5B0
:10169000F0E080818E7F8C93BBC0A5E5B0E0E5E5EE
:1016A000F0E080818D7F8C93A5E5B0E0E5E5F0E08A
:1016B000808181608C93ACC0A5E5B0E0E5E5F0E009
:1016C000808182608C93A5E5B0E0E5E5F0E0808163
:1016D0008E7F8C939DC0A5E5B0E0E5E5F0E08081CC
:1016E00082608C93A5E5B0E0E5E5F0E08081816063
:1016F0008C938EC081E089838BC08A81813009F010
:101700005FC08B81282F30E03F832E838E819F81A5
:101710008230910529F12E813F812330310534F447
:101720008E819F818130910561F047C02E813F817C
:101730002330310521F18E819F818430910571F133
:101740003CC0A5E5B0E0E5E5F0E08081877F8C93C3
:10175000A5E5B0E0E5E5F0E080818B7F8C9358C093
:10176000A5E5B0E0E5E5F0E08081877F8C93A5E515
:10177000B0E0E5E5F0E0808184608C9349C0A5E5A8
:10178000B0E0E5E5F0E0808188608C93A5E5B0E00D
:10179000E5E5F0E080818B7F8C933AC0A5E5B0E071
:1017A000E5E5F0E0808188608C93A5E5B0E0E5E5B3
:1017B000F0E0808184608C932BC081E0898328C015
:1017C0008A81823019F58B81282F30E03D832C836C
:1017D0008C819D818330910531F02C813D812430B5
:1017E000310549F010C0A4E5B0E0E4E5F0E0808107
:1017F0008F7B8C930DC0A4E5B0E0E4E5F0E0808140
:1018000080648C9305C081E0898302C081E0898374
:10181000898129960FB6F894DEBF0FBECDBFCF9158
:10182000DF910895DF93CF9300D000D0CDB7DEB71E
:101830008A8319828A81282F30E03C832B838B8115
:101840009C818130910589F02B813C8122303105CA
:10185000A1F08B819C810097C1F4ABE5B0E0EBE592
:10186000F0E0808180648C9312C0ABE5B0E0EBE5E2
:10187000F0E0808180688C930AC0ABE5B0E0EBE5D6
:10188000F0E0808180628C9302C081E0898389814D
:101890000F900F900F900F90CF91DF910895DF93ED
:1018A000CF9300D000D0CDB7DEB78A8319828A816A
:1018B000282F30E03C832B838B819C8181309105E4
:1018C00089F02B813C8122303105A1F08B819C81F4
:1018D0000097C1F4ABE5B0E0EBE5F0E080818F7BF1
:1018E0008C9312C0ABE5B0E0EBE5F0E080818F7740
:1018F0008C930AC0ABE5B0E0EBE5F0E080818F7D32
:101900008C9302C081E0898389810F900F900F90A2
:101910000F90CF91DF910895DF93CF9300D000D047
:10192000CDB7DEB78A837C836B8319828B819C81E0
:101930002FEF8F3F920769F08A81882F90E0880F00
:10194000991FFC01E358FF4F8B819C819183808319
:1019500002C082E0898389810F900F900F900F90D1
:10196000CF91DF9108951F920F920FB60F9211241D
:101970002F933F934F935F936F937F938F939F9397
:10198000AF93BF93EF93FF93DF93CF93CDB7DEB7C2
:1019900080917D0090917E002FEF8F3F920729F07C
:1019A000E0917D00F0917E000995CF91DF91FF914C
:1019B000EF91BF91AF919F918F917F916F915F91C7
:1019C0004F913F912F910F900FBE0F901F90189540
:1019D0001F920F920FB60F9211242F933F934F93A4
:1019E0005F936F937F938F939F93AF93BF93EF9387
:1019F000FF93DF93CF93CDB7DEB780917F009091B7
:101A000080002FEF8F3F920729F0E0917F00F09147
:101A100080000995CF91DF91FF91EF91BF91AF9138
:101A20009F918F917F916F915F914F913F912F91F6
:101A30000F900FBE0F901F9018951F920F920FB628
:101A40000F9211242F933F934F935F936F937F9344
:101A50008F939F93AF93BF93EF93FF93DF93CF93B6
:101A6000CDB7DEB780918100909182002FEF8F3F3C
:101A7000920729F0E0918100F09182000995CF91C1
:101A8000DF91FF91EF91BF91AF919F918F917F91E6
:101A90006F915F914F913F912F910F900FBE0F90DB
:101AA0001F901895DF93CF93CDB7DEB77894CF9181
:101AB000DF910895DF93CF93CDB7DEB7F894CF9140
:101AC000DF910895DF93CF93CDB7DEB7EAE3F0E07F
:101AD00087EF8083E7E3F0E08AE28083E4E3F0E0ED
:101AE00082E08083E1E3F0E01082EBE3F0E010823B
:101AF000E8E3F0E01082E5E3F0E088E78083E2E3EA
:101B0000F0E01082CF91DF910895DF93CF9300D062
:101B100000D000D0CDB7DEB79C838B837E836D83EE
:101B200019828B819C812FEF8F3F920709F43DC072
:101B30008D819E812FEF8F3F9207B9F1EB81FC8160
:101B40008281823078F5EB81FC818081EB81FC81A0
:101B500091819E012E5F3F4F692FA9010E94A0092C
:101B600089838981882319F5EB81FC818281813009
:101B700041F48A81813029F4ED81FE8181E0808306
:101B800016C0EB81FC818281882341F48A818823FD
:101B900029F4ED81FE8181E0808309C0ED81FE8121
:101BA000108205C081E0898302C082E08983898137
:101BB00026960FB6F894DEBF0FBECDBFCF91DF9152
:101BC00008950F931F93DF93CF93CDB7DEB72A9776
:101BD0000FB6F894DEBF0FBECDBF09831A832B83E7
:101BE0003C834D835E836F83788789879A870E94C1
:101BF000820829813A81CE01039660E0422F232F8B
:101C00000E94350829893A89CE01439661E0422F26
:101C1000232F0E9435082A960FB6F894DEBF0FBE18
:101C2000CDBFCF91DF911F910F910895DF93CF9397
:101C3000CDB7DEB72E970FB6F894DEBF0FBECDBF7F
:101C40000E94820880E690E00E943C0781E0809339
:101C50009E0080E090E8ABE3B5E48B879C87AD877E
:101C6000BE876B857C858D859E8520E030E04AE7C8
:101C700055E40E941F02DC01CB018F839887A9875E
:101C8000BA876F81788589859A8520E030E040E8C1
:101C90005FE30E94790388232CF481E090E09E8327
:101CA0008D833FC06F81788589859A8520E03FEFDD
:101CB0004FE757E40E94190318164CF56B857C8595
:101CC0008D859E8520E030E040E251E40E941F02B5
:101CD000DC01CB01BC01CD010E944900DC01CB013C
:101CE0009E838D830FC080E991E09C838B838B81E1
:101CF0009C810197F1F79C838B838D819E81019755
:101D00009E838D838D819E81009769F714C06F81BA
:101D1000788589859A850E944900DC01CB019E83E4
:101D20008D838D819E819A83898389819A81019790
:101D3000F1F79A8389832E960FB6F894DEBF0FBE13
:101D4000CDBFCF91DF910895DF93CF93CDB7DEB7AD
:101D50002E970FB6F894DEBF0FBECDBF0E9482084B
:101D600088E690E00E943C0781E080939E0080E03E
:101D700090E8ABE3B5E48B879C87AD87BE876B8526
:101D80007C858D859E8520E030E04AE755E40E9401
:101D90001F02DC01CB018F839887A987BA876F81E7
:101DA000788589859A8520E030E040E85FE30E94ED
:101DB000790388232CF481E090E09E838D833FC0DB
:101DC0006F81788589859A8520E03FEF4FE757E45A
:101DD0000E94190318164CF56B857C858D859E85B0
:101DE00020E030E040E251E40E941F02DC01CB0120
:101DF000BC01CD010E944900DC01CB019E838D8393
:101E00000FC080E991E09C838B838B819C8101973B
:101E1000F1F79C838B838D819E8101979E838D83B7
:101E20008D819E81009769F714C06F8178858985BF
:101E30009A850E944900DC01CB019E838D838D81B0
:101E40009E819A83898389819A810197F1F79A8388
:101E500089832E960FB6F894DEBF0FBECDBFCF910B
:101E6000DF910895DF93CF93CDB7DEB70E943B0F8C
:101E7000CF91DF9108950F931F93DF93CF93CDB749
:101E8000DEB7C757D0400FB6F894DEBF0FBECDBF48
:101E90000E948208CE01885B9F4FA2969FAF8EAFB3
:101EA000A2978DE890E0A4969FAF8EAFA49793E0A1
:101EB000A5969FAFA597A496EEADFFADA497008021
:101EC000A4968EAD9FADA4970196A4969FAF8EAFBA
:101ED000A497A296EEADFFADA2970082A2968EAD1A
:101EE0009FADA2970196A2969FAF8EAFA297A5969F
:101EF0009FADA5979150A5969FAFA597A596EFADDD
:101F0000A597EE23C1F60E94FE1522E030E0B9014C
:101F10000E942D15FE01E55BFF4F1082FE01E55B7F
:101F2000FF4F8183FE01E55BFF4F1282FE01E55BFF
:101F3000FF4F1382FE01E55BFF4F84E08483FE01C7
:101F4000E55BFF4F8EE08583FE01E55BFF4F8FE190
:101F50008683FE01E55BFF4F8EE08783FE01E55B34
:101F6000FF4F84E08087FE01E55BFF4F1186CE01C5
:101F70008B5A9F4FA7969FAF8EAFA79783E890E0AD
:101F8000A9969FAF8EAFA9979AE0AA969FAFAA97FE
:101F9000A996EEADFFADA9970080A9968EAD9FAD35
:101FA000A9970196A9969FAF8EAFA997A796EEAD78
:101FB000FFADA7970082A7968EAD9FADA79701961C
:101FC000A7969FAF8EAFA797AA969FADAA9791505D
:101FD000AA969FAFAA97AA96EFADAA97EE23C1F64D
:101FE00038C18DB79EB70A970FB6F8949EBF0FBE43
:101FF0008DBF2DB73EB72F5F3F4FFE01E55BFF4F13
:10200000AC96FFAFEEAFAC97CE018B5A9F4FAE961A
:102010003FAF2EAFAE97E0969FAF8EAFE097FAE05E
:10202000E196FFAFE197E096EEADFFADE09700805F
:10203000E0968EAD9FADE0970196E0969FAF8EAF94
:10204000E097AE96EEADFFADAE970082AE968EAD48
:102050009FADAE970196AE969FAF8EAFAE97E196CD
:102060009FADE1979150E1969FAFE197E196EFAD7B
:10207000E197EE23C1F6AC96EEADFFADAC970081D3
:10208000AC96EEADFFADAC971181AC96EEADFFAD69
:10209000AC972281AC96EEADFFADAC973381AC9698
:1020A000EEADFFADAC974481AC96EEADFFADAC9715
:1020B0005581AC96EEADFFADAC976681AC96EEADBA
:1020C000FFADAC977781AC96EEADFFADAC97808558
:1020D000AC96EEADFFADAC9791850E94E10D8DB74A
:1020E0009EB70A960FB6F8949EBF0FBE8DBFFE0135
:1020F000E55BFF4F80818F5FFE01E55BFF4F8083D3
:102100000E94FE1522E030E0B9010E942D15FE016B
:10211000E55BFF4F8183CE01885B9F4F9E01215A73
:102120003F4FB9010E94850DFE01E15AFF4F8081AA
:10213000813031F4FE01EB5AFF4F81E0818304C00E
:10214000FE01EB5AFF4F1182FE01ED5BFF4F80E075
:1021500090E0A8E4B3E480839183A283B3838E01EB
:10216000015C1F4FFE01ED5BFF4F60817181828139
:10217000938120E030E04AE755E40E941F02DC0131
:10218000CB01F80180839183A283B383FE01FF9684
:10219000608171818281938120E030E040E85FE3DB
:1021A0000E94790388232CF481E090E09EAF8DAFEC
:1021B00046C0FE01FF96608171818281938120E09B
:1021C0003FEF4FE757E40E941903181664F5FE012C
:1021D000ED5BFF4F608171818281938120E030E06F
:1021E00040E251E40E941F02DC01CB01BC01CD01A1
:1021F0000E944900DC01CB019EAF8DAF0FC080E98A
:1022000091E09CAF8BAF8BAD9CAD0197F1F79CAF8C
:102210008BAF8DAD9EAD01979EAF8DAF8DAD9EAD59
:10222000009769F716C0FE01FF9660817181828177
:1022300093810E944900DC01CB019EAF8DAF8DAD33
:102240009EAD9AAF89AF89AD9AAD0197F1F79AAF7C
:1022500089AFFE01E55BFF4F80818F3008F4C1CE6E
:10226000FE01E55BFF4F9181FE01EB5AFF4F81813B
:10227000981709F0D3C1FE01E55BFF4F80818150C3
:10228000FE01E55BFF4F8083FE01E95BFF4F10829B
:102290002EC18DB79EB70A970FB6F8949EBF0FBE9A
:1022A0008DBF2DB73EB72F5F3F4FFE01E55BFF4F60
:1022B000E396FFAFEEAFE397CE018B5A9F4FE596C3
:1022C0003FAF2EAFE597E7969FAF8EAFE797FAE067
:1022D000E896FFAFE897E796EEADFFADE797008091
:1022E000E7968EAD9FADE7970196E7969FAF8EAFCD
:1022F000E797E596EEADFFADE5970082E5968EADEA
:102300009FADE5970196E5969FAF8EAFE597E8966E
:102310009FADE8979150E8969FAFE897E896EFADAC
:10232000E897EE23C1F6E396EEADFFADE3970081AB
:10233000E396EEADFFADE3971181E396EEADFFAD11
:10234000E3972281E396EEADFFADE3973381E39609
:10235000EEADFFADE3974481E396EEADFFADE397BD
:102360005581E396EEADFFADE3976681E396EEAD62
:10237000FFADE3977781E396EEADFFADE397808500
:10238000E396EEADFFADE39791850E94E10D8DB729
:102390009EB70A960FB6F8949EBF0FBE8DBFFE0182
:1023A000E55BFF4F80818150FE01E55BFF4F80833D
:1023B0000E94FE1522E030E0B9010E942D15FE01B9
:1023C000E55BFF4F8183CE01885B9F4F9E01215AC1
:1023D0003F4FB9010E94850DFE01E15AFF4F8081F8
:1023E000813031F4FE01EB5AFF4F81E0818304C05C
:1023F000FE01EB5AFF4F118280E090E0A8E4B3E4C5
:102400008DAB9EABAFABB8AF6DA97EA98FA998ADD0
:1024100020E030E04AE755E40E941F02DC01CB01D6
:1024200089AB9AABABABBCAB69A97AA98BA99CA9C8
:1024300020E030E040E85FE30E94790388232CF439
:1024400081E090E098AB8FA73FC069A97AA98BA9DA
:102450009CA920E03FEF4FE757E40E9419031816AC
:102460004CF56DA97EA98FA998AD20E030E040E23F
:1024700051E40E941F02DC01CB01BC01CD010E948E
:102480004900DC01CB0198AB8FA70FC080E991E038
:102490009EA78DA78DA59EA50197F1F79EA78DA755
:1024A0008FA598A9019798AB8FA78FA598A900979A
:1024B00069F714C069A97AA98BA99CA90E9449004F
:1024C000DC01CB0198AB8FA78FA598A99CA78BA700
:1024D0008BA59CA50197F1F79CA78BA7DE01A95BB3
:1024E000BF4FFE01E95BFF4F80818F5F8C93FE0140
:1024F000E95BFF4F80818F3008F4CBCE0E948208C9
:10250000FE01EB5AFF4F2081FE01EB5AFF4F318154
:10251000CE018B5A9F4F029661E0422F232F0E94DB
:10252000350880E062E041E00E948C0880E090E0A5
:10253000A8E4B2E48FA398A7A9A7BAA76FA178A52A
:1025400089A59AA520E030E04AE755E40E941F02E1
:10255000DC01CB018BA39CA3ADA3BEA36BA17CA18B
:102560008DA19EA120E030E040E85FE30E94790366
:1025700088232CF481E090E09AA389A33FC06BA14B
:102580007CA18DA19EA120E03FEF4FE757E40E9480
:10259000190318164CF56FA178A589A59AA520E016
:1025A00030E040E251E40E941F02DC01CB01BC019B
:1025B000CD010E944900DC01CB019AA389A30FC081
:1025C00080E991E098A38F8F8F8D98A10197F1F703
:1025D00098A38F8F89A19AA101979AA389A389A112
:1025E0009AA1009769F714C06BA17CA18DA19EA14F
:1025F0000E944900DC01CB019AA389A389A19AA179
:102600009E8F8D8F8D8D9E8D0197F1F79E8F8D8F73
:1026100080E062E040E00E948C08F4C00E948208E2
:1026200088E690E00E943C0780E060E041E00E9484
:102630008C0880E090E0A8E4B2E4898F9A8FAB8F99
:10264000BC8F698D7A8D8B8D9C8D20E030E04AE7C0
:1026500055E40E941F02DC01CB018D8B9E8BAF8B5A
:10266000B88F6D897E898F89988D20E030E040E8B1
:102670005FE30E94790388232CF481E090E09C8B37
:102680008B8B3FC06D897E898F89988D20E03FEFCD
:102690004FE757E40E94190318164CF5698D7A8D9F
:1026A0008B8D9C8D20E030E040E251E40E941F02BF
:1026B000DC01CB01BC01CD010E944900DC01CB0152
:1026C0009C8B8B8B0FC080E991E09A8B898B8989D9
:1026D0009A890197F1F79A8B898B8B899C8901974D
:1026E0009C8B8B8B8B899C89009769F714C06D89B3
:1026F0007E898F89988D0E944900DC01CB019C8BDB
:102700008B8B8B899C89988B8F878F859889019774
:10271000F1F7988B8F8780E060E040E00E948C08A2
:1027200080E090E8ABE3B5E48B879C87AD87BE87FC
:102730006B857C858D859E8520E030E04AE755E4F9
:102740000E941F02DC01CB018F839887A987BA877B
:102750006F81788589859A8520E030E040E85FE3E5
:102760000E94790388232CF481E090E09E838D837E
:102770003FC06F81788589859A8520E03FEF4FE7DC
:1027800057E40E94190318164CF56B857C858D85DE
:102790009E8520E030E040E251E40E941F02DC010F
:1027A000CB01BC01CD010E944900DC01CB019E831D
:1027B0008D830FC080E991E09C838B838B819C810A
:1027C0000197F1F79C838B838D819E8101979E8376
:1027D0008D838D819E81009769F714C06F81788504
:1027E00089859A850E944900DC01CB019E838D83F7
:1027F0008D819E819A83898389819A810197F1F7DE
:102800009A838983C958DF4F0FB6F894DEBF0FBE95
:10281000CDBFCF91DF911F910F910895DF93CF939B
:10282000CDB7DEB7A6970FB6F894DEBF0FBECDBF0B
:10283000CE010F969E8F8D8FEAE9F0E0F8A3EF8F1F
:10284000F3E0F9A3EF8DF8A100808F8D98A1019698
:1028500098A38F8FED8DFE8D00828D8D9E8D0196BC
:102860009E8F8D8F99A1915099A3E9A1EE2351F7E5
:102870000E94620D0E94A2060E94520D0E94CE0A82
:1028800026E13EE080E0B9010E948C0C24EA3EE0A3
:1028900081E0B9010E948C0C22E33FE082E0B901A3
:1028A0000E948C0CCE0143969BA38AA3E0E9F0E042
:1028B000FDA3ECA3FAE0FEA3ECA1FDA100808CA196
:1028C0009DA101969DA38CA3EAA1FBA100828AA1F0
:1028D0009BA101969BA38AA39EA191509EA3EEA1CA
:1028E000EE2351F78DC00E9482082B893C89CE01CE
:1028F0004396029661E0422F232F0E943508CE01B5
:102900000F969E012E5E3F4FB9010E94850D8A8968
:10291000813019F481E08C8B01C01C8A80E090E04A
:10292000AAE7B3E48B879C87AD87BE876B857C85E0
:102930008D859E8520E030E04AE755E40E941F0225
:10294000DC01CB018F839887A987BA876F8178854F
:1029500089859A8520E030E040E85FE30E947903B2
:1029600088232CF481E090E09E838D833FC06F81AB
:10297000788589859A8520E03FEF4FE757E40E94EC
:10298000190318164CF56B857C858D859E8520E096
:1029900030E040E251E40E941F02DC01CB01BC01A7
:1029A000CD010E944900DC01CB019E838D830FC0C5
:1029B00080E991E09C838B838B819C810197F1F767
:1029C0009C838B838D819E8101979E838D838D81D6
:1029D0009E81009769F714C06F81788589859A85F3
:1029E0000E944900DC01CB019E838D838D819E81F5
:1029F0009A83898389819A810197F1F79A838983E0
:102A000080919E00882309F46ECFA6960FB6F894A5
:102A1000DEBF0FBECDBFCF91DF910895629FD00181
:102A2000739FF001829FE00DF11D649FE00DF11D89
:102A3000929FF00D839FF00D749FF00D659FF00D38
:102A40009927729FB00DE11DF91F639FB00DE11D25
:102A5000F91FBD01CF011124089597FB092E072608
:102A60000AD077FD04D02ED006D000201AF470953D
:102A700061957F4F0895F6F7909581959F4F089542
:102A8000A1E21A2EAA1BBB1BFD010DC0AA1FBB1F72
:102A9000EE1FFF1FA217B307E407F50720F0A21BE4
:102AA000B30BE40BF50B661F771F881F991F1A9451
:102AB00069F760957095809590959B01AC01BD017B
:102AC000CF010895AA1BBB1B51E107C0AA1FBB1F62
:102AD000A617B70710F0A61BB70B881F991F5A95AA
:102AE000A9F780959095BC01CD0108952F923F9252
:102AF0004F925F926F927F928F929F92AF92BF920E
:102B0000CF92DF92EF92FF920F931F93CF93DF93B9
:102B1000CDB7DEB7CA1BDB0B0FB6F894DEBF0FBE16
:102B2000CDBF09942A88398848885F846E847D8463
:102B30008C849B84AA84B984C884DF80EE80FD8065
:102B40000C811B81AA81B981CE0FD11D0FB6F894DB
:102B5000DEBF0FBECDBFED010895A0E0B0E0E3EB16
:102B6000F5E10C947E15EC01A880B980CA80DB8069
:102B7000A114B104C104D10441F484E2A82E89ED6A
:102B8000B82E8BE5C82E87E0D82EC601B5012DE101
:102B900033EF41E050E00E940E1627EA31E440E0B6
:102BA00050E00E940E157B018C01C601B5012DE19C
:102BB00033EF41E050E00E940E16CA01B9012CEE3D
:102BC00034EF4FEF5FEF0E940E156E0D7F1D801FDB
:102BD000911F97FF04C06150704080409048688307
:102BE00079838A839B839B013F77C901CDB7DEB789
:102BF000EAE00C949A150E94AD15089589E790E0DB
:102C00000E94AD150895A0E0B0E080937900909304
:102C10007A00A0937B00B0937C00089597FB092E67
:102C200005260ED057FD04D02BDF0AD0001C38F447
:102C300050954095309521953F4F4F4F5F4F0895E8
:102C4000F6F790958095709561957F4F8F4F9F4FC8
:062C50000895F894FFCF87
:102C5600594F552057494E00594F55204C4F534513
:102C660000000000000000000001000000FFFFFF60
:102C7600FFFFFF0F00030303030303030301000128
:0E2C86000F0003030303030303030100010017
:00000001FF
