:100000000C942A000C9434000C9434000C943400AA
:100010000C9434000C9434000C9434000C94340090
:100020000C9434000C9434000C9434000C94340080
:100030000C9434000C9434000C9434000C94340070
:100040000C9434000C9434000C9434000C94340060
:100050000C94340011241FBECFE5D8E0DEBFCDBF25
:100060000E9436000C9409010C940000DF93CF939A
:10007000CDB7DEB727970FB6F894DEBF0FBECDBF62
:10008000A4E3B0E0E4E3F0E0808184608C93A4E337
:10009000B0E0E4E3F0E0808180688C93A1E3B0E01D
:1000A000E1E3F0E0808188608C93A6E3B0E0E6E3D2
:1000B000F0E080818E7F8C931F821E821D821C82C5
:1000C0001B8213C0E6E3F0E08081882F90E081700E
:1000D0009070882341F081E08D838B819C81019613
:1000E0009C838B8302C01D8206C08B819C8125E787
:1000F000803392073CF38D818130D1F48E81882F3B
:1001000090E0019623E030E0B9010E94E2008E8386
:100110001F828E81282F30E081E090E0022E02C005
:10012000880F991F0A94E2F7982F8F81892B8F836C
:100130001A8219823FC0A5E3B0E0E5E3F0E08081D8
:10014000282F2B7F8F81882F90E081709070880FEF
:10015000991F880F991F822B8C93A5E3B0E0E5E3EC
:10016000F0E08081282F2F778F818695882F90E06F
:100170009695982F882797958795822B8C93A2E345
:10018000B0E0E2E3F0E08081282F277F8F81869521
:100190008695882F90E081709070880F991F880F46
:1001A000991F880F991F822B8C9389819A810196C0
:1001B0009A83898389819A8129E0843C92070CF48F
:1001C000BACF7DCF97FB092E07260AD077FD04D042
:1001D0000CD006D000201AF4709561957F4F0895D9
:1001E000F6F7909581959F4F0895AA1BBB1B51E18F
:1001F00007C0AA1FBB1FA617B70710F0A61BB70B97
:10020000881F991F5A95A9F780959095BC01CD013B
:060210000895F894FFCFF1
:00000001FF
