:100000000C942A000C9434000C9434000C943400AA
:100010000C9434000C9434000C9434000C94340090
:100020000C9434000C9434000C9434000C94340080
:100030000C9434000C9434000C9434000C94340070
:100040000C9434000C9434000C9434000C94340060
:100050000C94340011241FBECFE5D8E0DEBFCDBF25
:100060000E9436000C94DC000C940000DF93CF93C8
:100070000F92CDB7DEB71982AAE3B0E0EAE3F0E071
:10008000808180618C93AAE3B0E0EAE3F0E08081B4
:1000900080628C93AAE3B0E0EAE3F0E080818064C0
:1000A0008C93AAE3B0E0EAE3F0E0808180688C936F
:1000B000A7E3B0E0E7E3F0E0808182608C93A7E300
:1000C000B0E0E7E3F0E080818B7F8C93A8E3B0E0C1
:1000D000E8E3F0E0808182608C9303C089818F5FC8
:1000E000898389818436D0F380E090E00F90CF91AE
:1000F000DF910895DF93CF930F92CDB7DEB7898359
:10010000ABE3B0E0EBE3F0E08081282F2F7E898124
:10011000882F90E08170907082959295907F9827BB
:10012000807F9827822B8C93ABE3B0E0EBE3F0E089
:100130008081282F2F7D89818695882F90E081707E
:100140009070880F991F82959295907F9827807F55
:100150009827822B8C93ABE3B0E0EBE3F0E0808157
:10016000282F2F7B898186958695882F90E0817036
:100170009070002496958795079496958795079497
:10018000982F802D822B8C93ABE3B0E0EBE3F0E073
:100190008081282F2F778981869586958695882F4F
:1001A00090E09695982F882797958795822B8C932A
:0C01B0000F90CF91DF910895F894FFCFDD
:00000001FF
