:100000000C942A000C9434000C9434000C943400AA
:100010000C9434000C9434000C9434000C94340090
:100020000C9434000C9434000C9434000C94340080
:100030000C9434000C9434000C9434000C94340070
:100040000C9434000C9434000C9434000C94340060
:100050000C94340011241FBECFE5D8E0DEBFCDBF25
:100060000E9436000C9469000C940000DF93CF933B
:10007000CDB7DEB7A1E3B0E0E1E3F0E080818860D6
:100080008C93A4E3B0E0E4E3F0E0808184608C939F
:10009000A4E3B0E0E4E3F0E0808180688C93A5E322
:1000A000B0E0E5E3F0E0808180688C93A5E3B0E008
:1000B000E5E3F0E0808184608C93A2E3B0E0E2E3CA
:1000C000F0E0808188608C9380E090E0CF91DF91B8
:0600D0000895F894FFCF33
:00000001FF
